{
  "contracts/Code.sol": {
    "Code": {
      "abi": [
        {
          "inputs": [
            {
              "internalType": "uint256",
              "name": "startPrice",
              "type": "uint256"
            }
          ],
          "stateMutability": "nonpayable",
          "type": "constructor"
        },
        {
          "inputs": [],
          "name": "Already_SUB",
          "type": "error"
        },
        {
          "inputs": [
            {
              "internalType": "uint256",
              "name": "currentBalance",
              "type": "uint256"
            },
            {
              "internalType": "uint256",
              "name": "PlayersNum",
              "type": "uint256"
            }
          ],
          "name": "Raffle__UpkeepNotNeeded",
          "type": "error"
        },
        {
          "inputs": [],
          "name": "Sub_NotQuantity",
          "type": "error"
        },
        {
          "inputs": [],
          "name": "EthValue",
          "outputs": [
            {
              "internalType": "uint256",
              "name": "",
              "type": "uint256"
            }
          ],
          "stateMutability": "view",
          "type": "function"
        },
        {
          "inputs": [],
          "name": "PriceConversion",
          "outputs": [],
          "stateMutability": "nonpayable",
          "type": "function"
        },
        {
          "inputs": [],
          "name": "Subscription",
          "outputs": [],
          "stateMutability": "payable",
          "type": "function"
        },
        {
          "inputs": [],
          "name": "Withdraw",
          "outputs": [],
          "stateMutability": "nonpayable",
          "type": "function"
        },
        {
          "inputs": [
            {
              "internalType": "address",
              "name": "add",
              "type": "address"
            }
          ],
          "name": "callTimer",
          "outputs": [
            {
              "internalType": "uint256",
              "name": "",
              "type": "uint256"
            },
            {
              "internalType": "enum Code.access",
              "name": "",
              "type": "uint8"
            }
          ],
          "stateMutability": "view",
          "type": "function"
        },
        {
          "inputs": [
            {
              "internalType": "uint256",
              "name": "newPrice",
              "type": "uint256"
            }
          ],
          "name": "changePrice",
          "outputs": [],
          "stateMutability": "nonpayable",
          "type": "function"
        },
        {
          "inputs": [
            {
              "internalType": "bytes",
              "name": "",
              "type": "bytes"
            }
          ],
          "name": "checkUpkeep",
          "outputs": [
            {
              "internalType": "bool",
              "name": "upkeepNeeded",
              "type": "bool"
            },
            {
              "internalType": "bytes",
              "name": "walletOut",
              "type": "bytes"
            }
          ],
          "stateMutability": "view",
          "type": "function"
        },
        {
          "inputs": [],
          "name": "getBalance",
          "outputs": [
            {
              "internalType": "uint256",
              "name": "",
              "type": "uint256"
            }
          ],
          "stateMutability": "view",
          "type": "function"
        },
        {
          "inputs": [],
          "name": "getMembers",
          "outputs": [
            {
              "internalType": "address[]",
              "name": "",
              "type": "address[]"
            }
          ],
          "stateMutability": "view",
          "type": "function"
        },
        {
          "inputs": [],
          "name": "getOwner",
          "outputs": [
            {
              "internalType": "address",
              "name": "",
              "type": "address"
            }
          ],
          "stateMutability": "view",
          "type": "function"
        },
        {
          "inputs": [],
          "name": "getPrice",
          "outputs": [
            {
              "internalType": "uint256",
              "name": "",
              "type": "uint256"
            },
            {
              "internalType": "uint256",
              "name": "",
              "type": "uint256"
            }
          ],
          "stateMutability": "view",
          "type": "function"
        },
        {
          "inputs": [],
          "name": "getSubscribers",
          "outputs": [
            {
              "internalType": "uint256",
              "name": "",
              "type": "uint256"
            }
          ],
          "stateMutability": "view",
          "type": "function"
        },
        {
          "inputs": [],
          "name": "i_owner",
          "outputs": [
            {
              "internalType": "address",
              "name": "",
              "type": "address"
            }
          ],
          "stateMutability": "view",
          "type": "function"
        },
        {
          "inputs": [
            {
              "internalType": "bytes",
              "name": "walletOut",
              "type": "bytes"
            }
          ],
          "name": "performUpkeep",
          "outputs": [],
          "stateMutability": "nonpayable",
          "type": "function"
        },
        {
          "inputs": [],
          "name": "priceFeed",
          "outputs": [
            {
              "internalType": "contract AggregatorV3Interface",
              "name": "",
              "type": "address"
            }
          ],
          "stateMutability": "view",
          "type": "function"
        }
      ],
      "devdoc": {
        "kind": "dev",
        "methods": {},
        "version": 1
      },
      "evm": {
        "bytecode": {
          "linkReferences": {},
          "object": "60a06040523480156200001157600080fd5b5060405162001cad38038062001cad833981810160405281019062000037919062000119565b3373ffffffffffffffffffffffffffffffffffffffff1660808173ffffffffffffffffffffffffffffffffffffffff1660601b81525050806002819055506032600381905550738a753747a1fa494ec906ce90e9f37563a8af630e600560006101000a81548173ffffffffffffffffffffffffffffffffffffffff021916908373ffffffffffffffffffffffffffffffffffffffff160217905550506200014b565b600080fd5b6000819050919050565b620000f381620000de565b8114620000ff57600080fd5b50565b6000815190506200011381620000e8565b92915050565b600060208284031215620001325762000131620000d9565b5b6000620001428482850162000102565b91505092915050565b60805160601c611b19620001946000396000818161035c015281816105f90152818161065301528181610ba201528181610d1901528181610d7e0152610e7d0152611b196000f3fe6080604052600436106100e85760003560e01c8063856365d11161008a5780639eab5253116100595780639eab52531461028f578063a2b40d19146102ba578063bc19f7c5146102e3578063dba6335f14610321576100e8565b8063856365d114610217578063893d20e814610221578063904a312c1461024c57806398d5fdca14610263576100e8565b80634585e33b116100c65780634585e33b1461016e57806357ea89b6146101975780636e04ff0d146101ae578063741bef1a146101ec576100e8565b806305cc61ad146100ed57806312065fe01461011857806326a361d414610143575b600080fd5b3480156100f957600080fd5b5061010261034c565b60405161010f9190610f81565b60405180910390f35b34801561012457600080fd5b5061012d610358565b60405161013a9190610f81565b60405180910390f35b34801561014f57600080fd5b506101586103b8565b6040516101659190610f81565b60405180910390f35b34801561017a57600080fd5b5061019560048036038101906101909190611015565b6103c2565b005b3480156101a357600080fd5b506101ac6105f7565b005b3480156101ba57600080fd5b506101d560048036038101906101d091906111a3565b6106e8565b6040516101e392919061128f565b60405180910390f35b3480156101f857600080fd5b50610201610968565b60405161020e919061133e565b60405180910390f35b61021f61098e565b005b34801561022d57600080fd5b50610236610b9e565b604051610243919061137a565b60405180910390f35b34801561025857600080fd5b50610261610bc6565b005b34801561026f57600080fd5b50610278610bfc565b604051610286929190611395565b60405180910390f35b34801561029b57600080fd5b506102a4610c0d565b6040516102b1919061147c565b60405180910390f35b3480156102c657600080fd5b506102e160048036038101906102dc91906114ca565b610d17565b005b3480156102ef57600080fd5b5061030a60048036038101906103059190611523565b610d79565b6040516103189291906115c7565b60405180910390f35b34801561032d57600080fd5b50610336610e7b565b604051610343919061137a565b60405180910390f35b60008080549050905090565b60007f000000000000000000000000000000000000000000000000000000000000000073ffffffffffffffffffffffffffffffffffffffff163373ffffffffffffffffffffffffffffffffffffffff16146103b257600080fd5b47905090565b6000600454905090565b60006103dc604051806020016040528060008152506106e8565b5090508061042857476000805490506040517f75c3d3dc00000000000000000000000000000000000000000000000000000000815260040161041f929190611395565b60405180910390fd5b600080600090505b848490508110156104bb57600181610448919061161f565b858590506104569190611675565b600861046291906116a9565b600261046e9190611836565b85858381811061048157610480611881565b5b9050013560f81c60f81b60f81c60ff1661049b91906116a9565b826104a6919061161f565b915080806104b3906118b0565b915050610430565b50683635c9adc5de9fffff600160008084815481106104dd576104dc611881565b5b9060005260206000200160009054906101000a900473ffffffffffffffffffffffffffffffffffffffff1673ffffffffffffffffffffffffffffffffffffffff1673ffffffffffffffffffffffffffffffffffffffff1681526020019081526020016000206000018190555060006001600080848154811061056257610561611881565b5b9060005260206000200160009054906101000a900473ffffffffffffffffffffffffffffffffffffffff1673ffffffffffffffffffffffffffffffffffffffff1673ffffffffffffffffffffffffffffffffffffffff16815260200190815260200160002060010160006101000a81548160ff021916908360018111156105ec576105eb611550565b5b021790555050505050565b7f000000000000000000000000000000000000000000000000000000000000000073ffffffffffffffffffffffffffffffffffffffff163373ffffffffffffffffffffffffffffffffffffffff161461064f57600080fd5b60007f000000000000000000000000000000000000000000000000000000000000000073ffffffffffffffffffffffffffffffffffffffff16476040516106959061192a565b60006040518083038185875af1925050503d80600081146106d2576040519150601f19603f3d011682016040523d82523d6000602084013e6106d7565b606091505b50509050806106e557600080fd5b50565b600060606000806000805490501190506000808054905067ffffffffffffffff81111561071857610717611078565b5b6040519080825280602002602001820160405280156107465781602001602082028036833780820191505090505b50905060005b600080549050811015610960576000818154811061076d5761076c611881565b5b9060005260206000200160009054906101000a900473ffffffffffffffffffffffffffffffffffffffff168282815181106107ab576107aa611881565b5b602002602001019073ffffffffffffffffffffffffffffffffffffffff16908173ffffffffffffffffffffffffffffffffffffffff16815250506000600160008484815181106107fe576107fd611881565b5b602002602001015173ffffffffffffffffffffffffffffffffffffffff1673ffffffffffffffffffffffffffffffffffffffff168152602001908152602001600020604051806040016040529081600082015481526020016001820160009054906101000a900460ff16600181111561087a57610879611550565b5b600181111561088c5761088b611550565b5b815250509050600081600001519050600060035482426108ac9190611675565b1190508080156108e357506001808111156108ca576108c9611550565b5b836020015160018111156108e1576108e0611550565b5b145b1561090b57836040516020016108f99190611960565b60405160208183030381529060405296505b8080156109155750855b8015610948575060018081111561092f5761092e611550565b5b8360200151600181111561094657610945611550565b5b145b97505050508080610958906118b0565b91505061074c565b505050915091565b600560009054906101000a900473ffffffffffffffffffffffffffffffffffffffff1681565b6000600160003373ffffffffffffffffffffffffffffffffffffffff1673ffffffffffffffffffffffffffffffffffffffff168152602001908152602001600020604051806040016040529081600082015481526020016001820160009054906101000a900460ff166001811115610a0957610a08611550565b5b6001811115610a1b57610a1a611550565b5b815250509050600180811115610a3457610a33611550565b5b81602001516001811115610a4b57610a4a611550565b5b1415610a83576040517fb7bb0ae300000000000000000000000000000000000000000000000000000000815260040160405180910390fd5b6002543414610abe576040517f78ff246500000000000000000000000000000000000000000000000000000000815260040160405180910390fd5b6000339080600181540180825580915050600190039060005260206000200160009091909190916101000a81548173ffffffffffffffffffffffffffffffffffffffff021916908373ffffffffffffffffffffffffffffffffffffffff1602179055506000600160003373ffffffffffffffffffffffffffffffffffffffff1673ffffffffffffffffffffffffffffffffffffffff168152602001908152602001600020905042816000018190555060018160010160006101000a81548160ff02191690836001811115610b9557610b94611550565b5b02179055505050565b60007f0000000000000000000000000000000000000000000000000000000000000000905090565b610bf4600254600560009054906101000a900473ffffffffffffffffffffffffffffffffffffffff16610e9f565b600481905550565b600080600254600454915091509091565b60606000808054905067ffffffffffffffff811115610c2f57610c2e611078565b5b604051908082528060200260200182016040528015610c5d5781602001602082028036833780820191505090505b50905060005b600080549050811015610d0f5760008181548110610c8457610c83611881565b5b9060005260206000200160009054906101000a900473ffffffffffffffffffffffffffffffffffffffff16828281518110610cc257610cc1611881565b5b602002602001019073ffffffffffffffffffffffffffffffffffffffff16908173ffffffffffffffffffffffffffffffffffffffff16815250508080610d07906118b0565b915050610c63565b508091505090565b7f000000000000000000000000000000000000000000000000000000000000000073ffffffffffffffffffffffffffffffffffffffff163373ffffffffffffffffffffffffffffffffffffffff1614610d6f57600080fd5b8060028190555050565b6000807f000000000000000000000000000000000000000000000000000000000000000073ffffffffffffffffffffffffffffffffffffffff163373ffffffffffffffffffffffffffffffffffffffff1614610dd457600080fd5b6000600160008573ffffffffffffffffffffffffffffffffffffffff1673ffffffffffffffffffffffffffffffffffffffff168152602001908152602001600020604051806040016040529081600082015481526020016001820160009054906101000a900460ff166001811115610e4f57610e4e611550565b5b6001811115610e6157610e60611550565b5b815250509050806000015181602001519250925050915091565b7f000000000000000000000000000000000000000000000000000000000000000081565b600080610eab83610ed8565b905060008164174876e80086610ec191906116a9565b610ecb91906119aa565b9050809250505092915050565b6000808273ffffffffffffffffffffffffffffffffffffffff1663feaf968c6040518163ffffffff1660e01b815260040160a06040518083038186803b158015610f2157600080fd5b505afa158015610f35573d6000803e3d6000fd5b505050506040513d601f19601f82011682018060405250810190610f599190611a68565b50505091505080915050919050565b6000819050919050565b610f7b81610f68565b82525050565b6000602082019050610f966000830184610f72565b92915050565b6000604051905090565b600080fd5b600080fd5b600080fd5b600080fd5b600080fd5b60008083601f840112610fd557610fd4610fb0565b5b8235905067ffffffffffffffff811115610ff257610ff1610fb5565b5b60208301915083600182028301111561100e5761100d610fba565b5b9250929050565b6000806020838503121561102c5761102b610fa6565b5b600083013567ffffffffffffffff81111561104a57611049610fab565b5b61105685828601610fbf565b92509250509250929050565b600080fd5b6000601f19601f8301169050919050565b7f4e487b7100000000000000000000000000000000000000000000000000000000600052604160045260246000fd5b6110b082611067565b810181811067ffffffffffffffff821117156110cf576110ce611078565b5b80604052505050565b60006110e2610f9c565b90506110ee82826110a7565b919050565b600067ffffffffffffffff82111561110e5761110d611078565b5b61111782611067565b9050602081019050919050565b82818337600083830152505050565b6000611146611141846110f3565b6110d8565b90508281526020810184848401111561116257611161611062565b5b61116d848285611124565b509392505050565b600082601f83011261118a57611189610fb0565b5b813561119a848260208601611133565b91505092915050565b6000602082840312156111b9576111b8610fa6565b5b600082013567ffffffffffffffff8111156111d7576111d6610fab565b5b6111e384828501611175565b91505092915050565b60008115159050919050565b611201816111ec565b82525050565b600081519050919050565b600082825260208201905092915050565b60005b83811015611241578082015181840152602081019050611226565b83811115611250576000848401525b50505050565b600061126182611207565b61126b8185611212565b935061127b818560208601611223565b61128481611067565b840191505092915050565b60006040820190506112a460008301856111f8565b81810360208301526112b68184611256565b90509392505050565b600073ffffffffffffffffffffffffffffffffffffffff82169050919050565b6000819050919050565b60006113046112ff6112fa846112bf565b6112df565b6112bf565b9050919050565b6000611316826112e9565b9050919050565b60006113288261130b565b9050919050565b6113388161131d565b82525050565b6000602082019050611353600083018461132f565b92915050565b6000611364826112bf565b9050919050565b61137481611359565b82525050565b600060208201905061138f600083018461136b565b92915050565b60006040820190506113aa6000830185610f72565b6113b76020830184610f72565b9392505050565b600081519050919050565b600082825260208201905092915050565b6000819050602082019050919050565b6113f381611359565b82525050565b600061140583836113ea565b60208301905092915050565b6000602082019050919050565b6000611429826113be565b61143381856113c9565b935061143e836113da565b8060005b8381101561146f57815161145688826113f9565b975061146183611411565b925050600181019050611442565b5085935050505092915050565b60006020820190508181036000830152611496818461141e565b905092915050565b6114a781610f68565b81146114b257600080fd5b50565b6000813590506114c48161149e565b92915050565b6000602082840312156114e0576114df610fa6565b5b60006114ee848285016114b5565b91505092915050565b61150081611359565b811461150b57600080fd5b50565b60008135905061151d816114f7565b92915050565b60006020828403121561153957611538610fa6565b5b60006115478482850161150e565b91505092915050565b7f4e487b7100000000000000000000000000000000000000000000000000000000600052602160045260246000fd5b600281106115905761158f611550565b5b50565b60008190506115a18261157f565b919050565b60006115b182611593565b9050919050565b6115c1816115a6565b82525050565b60006040820190506115dc6000830185610f72565b6115e960208301846115b8565b9392505050565b7f4e487b7100000000000000000000000000000000000000000000000000000000600052601160045260246000fd5b600061162a82610f68565b915061163583610f68565b9250827fffffffffffffffffffffffffffffffffffffffffffffffffffffffffffffffff0382111561166a576116696115f0565b5b828201905092915050565b600061168082610f68565b915061168b83610f68565b92508282101561169e5761169d6115f0565b5b828203905092915050565b60006116b482610f68565b91506116bf83610f68565b9250817fffffffffffffffffffffffffffffffffffffffffffffffffffffffffffffffff04831182151516156116f8576116f76115f0565b5b828202905092915050565b60008160011c9050919050565b6000808291508390505b600185111561175a57808604811115611736576117356115f0565b5b60018516156117455780820291505b808102905061175385611703565b945061171a565b94509492505050565b600082611773576001905061182f565b81611781576000905061182f565b816001811461179757600281146117a1576117d0565b600191505061182f565b60ff8411156117b3576117b26115f0565b5b8360020a9150848211156117ca576117c96115f0565b5b5061182f565b5060208310610133831016604e8410600b84101617156118055782820a905083811115611800576117ff6115f0565b5b61182f565b6118128484846001611710565b92509050818404811115611829576118286115f0565b5b81810290505b9392505050565b600061184182610f68565b915061184c83610f68565b92506118797fffffffffffffffffffffffffffffffffffffffffffffffffffffffffffffffff8484611763565b905092915050565b7f4e487b7100000000000000000000000000000000000000000000000000000000600052603260045260246000fd5b60006118bb82610f68565b91507fffffffffffffffffffffffffffffffffffffffffffffffffffffffffffffffff8214156118ee576118ed6115f0565b5b600182019050919050565b600081905092915050565b50565b60006119146000836118f9565b915061191f82611904565b600082019050919050565b600061193582611907565b9150819050919050565b6000819050919050565b61195a61195582610f68565b61193f565b82525050565b600061196c8284611949565b60208201915081905092915050565b7f4e487b7100000000000000000000000000000000000000000000000000000000600052601260045260246000fd5b60006119b582610f68565b91506119c083610f68565b9250826119d0576119cf61197b565b5b828204905092915050565b600069ffffffffffffffffffff82169050919050565b6119fa816119db565b8114611a0557600080fd5b50565b600081519050611a17816119f1565b92915050565b6000819050919050565b611a3081611a1d565b8114611a3b57600080fd5b50565b600081519050611a4d81611a27565b92915050565b600081519050611a628161149e565b92915050565b600080600080600060a08688031215611a8457611a83610fa6565b5b6000611a9288828901611a08565b9550506020611aa388828901611a3e565b9450506040611ab488828901611a53565b9350506060611ac588828901611a53565b9250506080611ad688828901611a08565b915050929550929590935056fea2646970667358221220a62cc97c4de6fdb28d0359bd875584bb20575ab972a5d99824b37b2e7b5a477e64736f6c63430008080033",
          "opcodes": "PUSH1 0xA0 PUSH1 0x40 MSTORE CALLVALUE DUP1 ISZERO PUSH3 0x11 JUMPI PUSH1 0x0 DUP1 REVERT JUMPDEST POP PUSH1 0x40 MLOAD PUSH3 0x1CAD CODESIZE SUB DUP1 PUSH3 0x1CAD DUP4 CODECOPY DUP2 DUP2 ADD PUSH1 0x40 MSTORE DUP2 ADD SWAP1 PUSH3 0x37 SWAP2 SWAP1 PUSH3 0x119 JUMP JUMPDEST CALLER PUSH20 0xFFFFFFFFFFFFFFFFFFFFFFFFFFFFFFFFFFFFFFFF AND PUSH1 0x80 DUP2 PUSH20 0xFFFFFFFFFFFFFFFFFFFFFFFFFFFFFFFFFFFFFFFF AND PUSH1 0x60 SHL DUP2 MSTORE POP POP DUP1 PUSH1 0x2 DUP2 SWAP1 SSTORE POP PUSH1 0x32 PUSH1 0x3 DUP2 SWAP1 SSTORE POP PUSH20 0x8A753747A1FA494EC906CE90E9F37563A8AF630E PUSH1 0x5 PUSH1 0x0 PUSH2 0x100 EXP DUP2 SLOAD DUP2 PUSH20 0xFFFFFFFFFFFFFFFFFFFFFFFFFFFFFFFFFFFFFFFF MUL NOT AND SWAP1 DUP4 PUSH20 0xFFFFFFFFFFFFFFFFFFFFFFFFFFFFFFFFFFFFFFFF AND MUL OR SWAP1 SSTORE POP POP PUSH3 0x14B JUMP JUMPDEST PUSH1 0x0 DUP1 REVERT JUMPDEST PUSH1 0x0 DUP2 SWAP1 POP SWAP2 SWAP1 POP JUMP JUMPDEST PUSH3 0xF3 DUP2 PUSH3 0xDE JUMP JUMPDEST DUP2 EQ PUSH3 0xFF JUMPI PUSH1 0x0 DUP1 REVERT JUMPDEST POP JUMP JUMPDEST PUSH1 0x0 DUP2 MLOAD SWAP1 POP PUSH3 0x113 DUP2 PUSH3 0xE8 JUMP JUMPDEST SWAP3 SWAP2 POP POP JUMP JUMPDEST PUSH1 0x0 PUSH1 0x20 DUP3 DUP5 SUB SLT ISZERO PUSH3 0x132 JUMPI PUSH3 0x131 PUSH3 0xD9 JUMP JUMPDEST JUMPDEST PUSH1 0x0 PUSH3 0x142 DUP5 DUP3 DUP6 ADD PUSH3 0x102 JUMP JUMPDEST SWAP2 POP POP SWAP3 SWAP2 POP POP JUMP JUMPDEST PUSH1 0x80 MLOAD PUSH1 0x60 SHR PUSH2 0x1B19 PUSH3 0x194 PUSH1 0x0 CODECOPY PUSH1 0x0 DUP2 DUP2 PUSH2 0x35C ADD MSTORE DUP2 DUP2 PUSH2 0x5F9 ADD MSTORE DUP2 DUP2 PUSH2 0x653 ADD MSTORE DUP2 DUP2 PUSH2 0xBA2 ADD MSTORE DUP2 DUP2 PUSH2 0xD19 ADD MSTORE DUP2 DUP2 PUSH2 0xD7E ADD MSTORE PUSH2 0xE7D ADD MSTORE PUSH2 0x1B19 PUSH1 0x0 RETURN INVALID PUSH1 0x80 PUSH1 0x40 MSTORE PUSH1 0x4 CALLDATASIZE LT PUSH2 0xE8 JUMPI PUSH1 0x0 CALLDATALOAD PUSH1 0xE0 SHR DUP1 PUSH4 0x856365D1 GT PUSH2 0x8A JUMPI DUP1 PUSH4 0x9EAB5253 GT PUSH2 0x59 JUMPI DUP1 PUSH4 0x9EAB5253 EQ PUSH2 0x28F JUMPI DUP1 PUSH4 0xA2B40D19 EQ PUSH2 0x2BA JUMPI DUP1 PUSH4 0xBC19F7C5 EQ PUSH2 0x2E3 JUMPI DUP1 PUSH4 0xDBA6335F EQ PUSH2 0x321 JUMPI PUSH2 0xE8 JUMP JUMPDEST DUP1 PUSH4 0x856365D1 EQ PUSH2 0x217 JUMPI DUP1 PUSH4 0x893D20E8 EQ PUSH2 0x221 JUMPI DUP1 PUSH4 0x904A312C EQ PUSH2 0x24C JUMPI DUP1 PUSH4 0x98D5FDCA EQ PUSH2 0x263 JUMPI PUSH2 0xE8 JUMP JUMPDEST DUP1 PUSH4 0x4585E33B GT PUSH2 0xC6 JUMPI DUP1 PUSH4 0x4585E33B EQ PUSH2 0x16E JUMPI DUP1 PUSH4 0x57EA89B6 EQ PUSH2 0x197 JUMPI DUP1 PUSH4 0x6E04FF0D EQ PUSH2 0x1AE JUMPI DUP1 PUSH4 0x741BEF1A EQ PUSH2 0x1EC JUMPI PUSH2 0xE8 JUMP JUMPDEST DUP1 PUSH4 0x5CC61AD EQ PUSH2 0xED JUMPI DUP1 PUSH4 0x12065FE0 EQ PUSH2 0x118 JUMPI DUP1 PUSH4 0x26A361D4 EQ PUSH2 0x143 JUMPI JUMPDEST PUSH1 0x0 DUP1 REVERT JUMPDEST CALLVALUE DUP1 ISZERO PUSH2 0xF9 JUMPI PUSH1 0x0 DUP1 REVERT JUMPDEST POP PUSH2 0x102 PUSH2 0x34C JUMP JUMPDEST PUSH1 0x40 MLOAD PUSH2 0x10F SWAP2 SWAP1 PUSH2 0xF81 JUMP JUMPDEST PUSH1 0x40 MLOAD DUP1 SWAP2 SUB SWAP1 RETURN JUMPDEST CALLVALUE DUP1 ISZERO PUSH2 0x124 JUMPI PUSH1 0x0 DUP1 REVERT JUMPDEST POP PUSH2 0x12D PUSH2 0x358 JUMP JUMPDEST PUSH1 0x40 MLOAD PUSH2 0x13A SWAP2 SWAP1 PUSH2 0xF81 JUMP JUMPDEST PUSH1 0x40 MLOAD DUP1 SWAP2 SUB SWAP1 RETURN JUMPDEST CALLVALUE DUP1 ISZERO PUSH2 0x14F JUMPI PUSH1 0x0 DUP1 REVERT JUMPDEST POP PUSH2 0x158 PUSH2 0x3B8 JUMP JUMPDEST PUSH1 0x40 MLOAD PUSH2 0x165 SWAP2 SWAP1 PUSH2 0xF81 JUMP JUMPDEST PUSH1 0x40 MLOAD DUP1 SWAP2 SUB SWAP1 RETURN JUMPDEST CALLVALUE DUP1 ISZERO PUSH2 0x17A JUMPI PUSH1 0x0 DUP1 REVERT JUMPDEST POP PUSH2 0x195 PUSH1 0x4 DUP1 CALLDATASIZE SUB DUP2 ADD SWAP1 PUSH2 0x190 SWAP2 SWAP1 PUSH2 0x1015 JUMP JUMPDEST PUSH2 0x3C2 JUMP JUMPDEST STOP JUMPDEST CALLVALUE DUP1 ISZERO PUSH2 0x1A3 JUMPI PUSH1 0x0 DUP1 REVERT JUMPDEST POP PUSH2 0x1AC PUSH2 0x5F7 JUMP JUMPDEST STOP JUMPDEST CALLVALUE DUP1 ISZERO PUSH2 0x1BA JUMPI PUSH1 0x0 DUP1 REVERT JUMPDEST POP PUSH2 0x1D5 PUSH1 0x4 DUP1 CALLDATASIZE SUB DUP2 ADD SWAP1 PUSH2 0x1D0 SWAP2 SWAP1 PUSH2 0x11A3 JUMP JUMPDEST PUSH2 0x6E8 JUMP JUMPDEST PUSH1 0x40 MLOAD PUSH2 0x1E3 SWAP3 SWAP2 SWAP1 PUSH2 0x128F JUMP JUMPDEST PUSH1 0x40 MLOAD DUP1 SWAP2 SUB SWAP1 RETURN JUMPDEST CALLVALUE DUP1 ISZERO PUSH2 0x1F8 JUMPI PUSH1 0x0 DUP1 REVERT JUMPDEST POP PUSH2 0x201 PUSH2 0x968 JUMP JUMPDEST PUSH1 0x40 MLOAD PUSH2 0x20E SWAP2 SWAP1 PUSH2 0x133E JUMP JUMPDEST PUSH1 0x40 MLOAD DUP1 SWAP2 SUB SWAP1 RETURN JUMPDEST PUSH2 0x21F PUSH2 0x98E JUMP JUMPDEST STOP JUMPDEST CALLVALUE DUP1 ISZERO PUSH2 0x22D JUMPI PUSH1 0x0 DUP1 REVERT JUMPDEST POP PUSH2 0x236 PUSH2 0xB9E JUMP JUMPDEST PUSH1 0x40 MLOAD PUSH2 0x243 SWAP2 SWAP1 PUSH2 0x137A JUMP JUMPDEST PUSH1 0x40 MLOAD DUP1 SWAP2 SUB SWAP1 RETURN JUMPDEST CALLVALUE DUP1 ISZERO PUSH2 0x258 JUMPI PUSH1 0x0 DUP1 REVERT JUMPDEST POP PUSH2 0x261 PUSH2 0xBC6 JUMP JUMPDEST STOP JUMPDEST CALLVALUE DUP1 ISZERO PUSH2 0x26F JUMPI PUSH1 0x0 DUP1 REVERT JUMPDEST POP PUSH2 0x278 PUSH2 0xBFC JUMP JUMPDEST PUSH1 0x40 MLOAD PUSH2 0x286 SWAP3 SWAP2 SWAP1 PUSH2 0x1395 JUMP JUMPDEST PUSH1 0x40 MLOAD DUP1 SWAP2 SUB SWAP1 RETURN JUMPDEST CALLVALUE DUP1 ISZERO PUSH2 0x29B JUMPI PUSH1 0x0 DUP1 REVERT JUMPDEST POP PUSH2 0x2A4 PUSH2 0xC0D JUMP JUMPDEST PUSH1 0x40 MLOAD PUSH2 0x2B1 SWAP2 SWAP1 PUSH2 0x147C JUMP JUMPDEST PUSH1 0x40 MLOAD DUP1 SWAP2 SUB SWAP1 RETURN JUMPDEST CALLVALUE DUP1 ISZERO PUSH2 0x2C6 JUMPI PUSH1 0x0 DUP1 REVERT JUMPDEST POP PUSH2 0x2E1 PUSH1 0x4 DUP1 CALLDATASIZE SUB DUP2 ADD SWAP1 PUSH2 0x2DC SWAP2 SWAP1 PUSH2 0x14CA JUMP JUMPDEST PUSH2 0xD17 JUMP JUMPDEST STOP JUMPDEST CALLVALUE DUP1 ISZERO PUSH2 0x2EF JUMPI PUSH1 0x0 DUP1 REVERT JUMPDEST POP PUSH2 0x30A PUSH1 0x4 DUP1 CALLDATASIZE SUB DUP2 ADD SWAP1 PUSH2 0x305 SWAP2 SWAP1 PUSH2 0x1523 JUMP JUMPDEST PUSH2 0xD79 JUMP JUMPDEST PUSH1 0x40 MLOAD PUSH2 0x318 SWAP3 SWAP2 SWAP1 PUSH2 0x15C7 JUMP JUMPDEST PUSH1 0x40 MLOAD DUP1 SWAP2 SUB SWAP1 RETURN JUMPDEST CALLVALUE DUP1 ISZERO PUSH2 0x32D JUMPI PUSH1 0x0 DUP1 REVERT JUMPDEST POP PUSH2 0x336 PUSH2 0xE7B JUMP JUMPDEST PUSH1 0x40 MLOAD PUSH2 0x343 SWAP2 SWAP1 PUSH2 0x137A JUMP JUMPDEST PUSH1 0x40 MLOAD DUP1 SWAP2 SUB SWAP1 RETURN JUMPDEST PUSH1 0x0 DUP1 DUP1 SLOAD SWAP1 POP SWAP1 POP SWAP1 JUMP JUMPDEST PUSH1 0x0 PUSH32 0x0 PUSH20 0xFFFFFFFFFFFFFFFFFFFFFFFFFFFFFFFFFFFFFFFF AND CALLER PUSH20 0xFFFFFFFFFFFFFFFFFFFFFFFFFFFFFFFFFFFFFFFF AND EQ PUSH2 0x3B2 JUMPI PUSH1 0x0 DUP1 REVERT JUMPDEST SELFBALANCE SWAP1 POP SWAP1 JUMP JUMPDEST PUSH1 0x0 PUSH1 0x4 SLOAD SWAP1 POP SWAP1 JUMP JUMPDEST PUSH1 0x0 PUSH2 0x3DC PUSH1 0x40 MLOAD DUP1 PUSH1 0x20 ADD PUSH1 0x40 MSTORE DUP1 PUSH1 0x0 DUP2 MSTORE POP PUSH2 0x6E8 JUMP JUMPDEST POP SWAP1 POP DUP1 PUSH2 0x428 JUMPI SELFBALANCE PUSH1 0x0 DUP1 SLOAD SWAP1 POP PUSH1 0x40 MLOAD PUSH32 0x75C3D3DC00000000000000000000000000000000000000000000000000000000 DUP2 MSTORE PUSH1 0x4 ADD PUSH2 0x41F SWAP3 SWAP2 SWAP1 PUSH2 0x1395 JUMP JUMPDEST PUSH1 0x40 MLOAD DUP1 SWAP2 SUB SWAP1 REVERT JUMPDEST PUSH1 0x0 DUP1 PUSH1 0x0 SWAP1 POP JUMPDEST DUP5 DUP5 SWAP1 POP DUP2 LT ISZERO PUSH2 0x4BB JUMPI PUSH1 0x1 DUP2 PUSH2 0x448 SWAP2 SWAP1 PUSH2 0x161F JUMP JUMPDEST DUP6 DUP6 SWAP1 POP PUSH2 0x456 SWAP2 SWAP1 PUSH2 0x1675 JUMP JUMPDEST PUSH1 0x8 PUSH2 0x462 SWAP2 SWAP1 PUSH2 0x16A9 JUMP JUMPDEST PUSH1 0x2 PUSH2 0x46E SWAP2 SWAP1 PUSH2 0x1836 JUMP JUMPDEST DUP6 DUP6 DUP4 DUP2 DUP2 LT PUSH2 0x481 JUMPI PUSH2 0x480 PUSH2 0x1881 JUMP JUMPDEST JUMPDEST SWAP1 POP ADD CALLDATALOAD PUSH1 0xF8 SHR PUSH1 0xF8 SHL PUSH1 0xF8 SHR PUSH1 0xFF AND PUSH2 0x49B SWAP2 SWAP1 PUSH2 0x16A9 JUMP JUMPDEST DUP3 PUSH2 0x4A6 SWAP2 SWAP1 PUSH2 0x161F JUMP JUMPDEST SWAP2 POP DUP1 DUP1 PUSH2 0x4B3 SWAP1 PUSH2 0x18B0 JUMP JUMPDEST SWAP2 POP POP PUSH2 0x430 JUMP JUMPDEST POP PUSH9 0x3635C9ADC5DE9FFFFF PUSH1 0x1 PUSH1 0x0 DUP1 DUP5 DUP2 SLOAD DUP2 LT PUSH2 0x4DD JUMPI PUSH2 0x4DC PUSH2 0x1881 JUMP JUMPDEST JUMPDEST SWAP1 PUSH1 0x0 MSTORE PUSH1 0x20 PUSH1 0x0 KECCAK256 ADD PUSH1 0x0 SWAP1 SLOAD SWAP1 PUSH2 0x100 EXP SWAP1 DIV PUSH20 0xFFFFFFFFFFFFFFFFFFFFFFFFFFFFFFFFFFFFFFFF AND PUSH20 0xFFFFFFFFFFFFFFFFFFFFFFFFFFFFFFFFFFFFFFFF AND PUSH20 0xFFFFFFFFFFFFFFFFFFFFFFFFFFFFFFFFFFFFFFFF AND DUP2 MSTORE PUSH1 0x20 ADD SWAP1 DUP2 MSTORE PUSH1 0x20 ADD PUSH1 0x0 KECCAK256 PUSH1 0x0 ADD DUP2 SWAP1 SSTORE POP PUSH1 0x0 PUSH1 0x1 PUSH1 0x0 DUP1 DUP5 DUP2 SLOAD DUP2 LT PUSH2 0x562 JUMPI PUSH2 0x561 PUSH2 0x1881 JUMP JUMPDEST JUMPDEST SWAP1 PUSH1 0x0 MSTORE PUSH1 0x20 PUSH1 0x0 KECCAK256 ADD PUSH1 0x0 SWAP1 SLOAD SWAP1 PUSH2 0x100 EXP SWAP1 DIV PUSH20 0xFFFFFFFFFFFFFFFFFFFFFFFFFFFFFFFFFFFFFFFF AND PUSH20 0xFFFFFFFFFFFFFFFFFFFFFFFFFFFFFFFFFFFFFFFF AND PUSH20 0xFFFFFFFFFFFFFFFFFFFFFFFFFFFFFFFFFFFFFFFF AND DUP2 MSTORE PUSH1 0x20 ADD SWAP1 DUP2 MSTORE PUSH1 0x20 ADD PUSH1 0x0 KECCAK256 PUSH1 0x1 ADD PUSH1 0x0 PUSH2 0x100 EXP DUP2 SLOAD DUP2 PUSH1 0xFF MUL NOT AND SWAP1 DUP4 PUSH1 0x1 DUP2 GT ISZERO PUSH2 0x5EC JUMPI PUSH2 0x5EB PUSH2 0x1550 JUMP JUMPDEST JUMPDEST MUL OR SWAP1 SSTORE POP POP POP POP POP JUMP JUMPDEST PUSH32 0x0 PUSH20 0xFFFFFFFFFFFFFFFFFFFFFFFFFFFFFFFFFFFFFFFF AND CALLER PUSH20 0xFFFFFFFFFFFFFFFFFFFFFFFFFFFFFFFFFFFFFFFF AND EQ PUSH2 0x64F JUMPI PUSH1 0x0 DUP1 REVERT JUMPDEST PUSH1 0x0 PUSH32 0x0 PUSH20 0xFFFFFFFFFFFFFFFFFFFFFFFFFFFFFFFFFFFFFFFF AND SELFBALANCE PUSH1 0x40 MLOAD PUSH2 0x695 SWAP1 PUSH2 0x192A JUMP JUMPDEST PUSH1 0x0 PUSH1 0x40 MLOAD DUP1 DUP4 SUB DUP2 DUP6 DUP8 GAS CALL SWAP3 POP POP POP RETURNDATASIZE DUP1 PUSH1 0x0 DUP2 EQ PUSH2 0x6D2 JUMPI PUSH1 0x40 MLOAD SWAP2 POP PUSH1 0x1F NOT PUSH1 0x3F RETURNDATASIZE ADD AND DUP3 ADD PUSH1 0x40 MSTORE RETURNDATASIZE DUP3 MSTORE RETURNDATASIZE PUSH1 0x0 PUSH1 0x20 DUP5 ADD RETURNDATACOPY PUSH2 0x6D7 JUMP JUMPDEST PUSH1 0x60 SWAP2 POP JUMPDEST POP POP SWAP1 POP DUP1 PUSH2 0x6E5 JUMPI PUSH1 0x0 DUP1 REVERT JUMPDEST POP JUMP JUMPDEST PUSH1 0x0 PUSH1 0x60 PUSH1 0x0 DUP1 PUSH1 0x0 DUP1 SLOAD SWAP1 POP GT SWAP1 POP PUSH1 0x0 DUP1 DUP1 SLOAD SWAP1 POP PUSH8 0xFFFFFFFFFFFFFFFF DUP2 GT ISZERO PUSH2 0x718 JUMPI PUSH2 0x717 PUSH2 0x1078 JUMP JUMPDEST JUMPDEST PUSH1 0x40 MLOAD SWAP1 DUP1 DUP3 MSTORE DUP1 PUSH1 0x20 MUL PUSH1 0x20 ADD DUP3 ADD PUSH1 0x40 MSTORE DUP1 ISZERO PUSH2 0x746 JUMPI DUP2 PUSH1 0x20 ADD PUSH1 0x20 DUP3 MUL DUP1 CALLDATASIZE DUP4 CALLDATACOPY DUP1 DUP3 ADD SWAP2 POP POP SWAP1 POP JUMPDEST POP SWAP1 POP PUSH1 0x0 JUMPDEST PUSH1 0x0 DUP1 SLOAD SWAP1 POP DUP2 LT ISZERO PUSH2 0x960 JUMPI PUSH1 0x0 DUP2 DUP2 SLOAD DUP2 LT PUSH2 0x76D JUMPI PUSH2 0x76C PUSH2 0x1881 JUMP JUMPDEST JUMPDEST SWAP1 PUSH1 0x0 MSTORE PUSH1 0x20 PUSH1 0x0 KECCAK256 ADD PUSH1 0x0 SWAP1 SLOAD SWAP1 PUSH2 0x100 EXP SWAP1 DIV PUSH20 0xFFFFFFFFFFFFFFFFFFFFFFFFFFFFFFFFFFFFFFFF AND DUP3 DUP3 DUP2 MLOAD DUP2 LT PUSH2 0x7AB JUMPI PUSH2 0x7AA PUSH2 0x1881 JUMP JUMPDEST JUMPDEST PUSH1 0x20 MUL PUSH1 0x20 ADD ADD SWAP1 PUSH20 0xFFFFFFFFFFFFFFFFFFFFFFFFFFFFFFFFFFFFFFFF AND SWAP1 DUP2 PUSH20 0xFFFFFFFFFFFFFFFFFFFFFFFFFFFFFFFFFFFFFFFF AND DUP2 MSTORE POP POP PUSH1 0x0 PUSH1 0x1 PUSH1 0x0 DUP5 DUP5 DUP2 MLOAD DUP2 LT PUSH2 0x7FE JUMPI PUSH2 0x7FD PUSH2 0x1881 JUMP JUMPDEST JUMPDEST PUSH1 0x20 MUL PUSH1 0x20 ADD ADD MLOAD PUSH20 0xFFFFFFFFFFFFFFFFFFFFFFFFFFFFFFFFFFFFFFFF AND PUSH20 0xFFFFFFFFFFFFFFFFFFFFFFFFFFFFFFFFFFFFFFFF AND DUP2 MSTORE PUSH1 0x20 ADD SWAP1 DUP2 MSTORE PUSH1 0x20 ADD PUSH1 0x0 KECCAK256 PUSH1 0x40 MLOAD DUP1 PUSH1 0x40 ADD PUSH1 0x40 MSTORE SWAP1 DUP2 PUSH1 0x0 DUP3 ADD SLOAD DUP2 MSTORE PUSH1 0x20 ADD PUSH1 0x1 DUP3 ADD PUSH1 0x0 SWAP1 SLOAD SWAP1 PUSH2 0x100 EXP SWAP1 DIV PUSH1 0xFF AND PUSH1 0x1 DUP2 GT ISZERO PUSH2 0x87A JUMPI PUSH2 0x879 PUSH2 0x1550 JUMP JUMPDEST JUMPDEST PUSH1 0x1 DUP2 GT ISZERO PUSH2 0x88C JUMPI PUSH2 0x88B PUSH2 0x1550 JUMP JUMPDEST JUMPDEST DUP2 MSTORE POP POP SWAP1 POP PUSH1 0x0 DUP2 PUSH1 0x0 ADD MLOAD SWAP1 POP PUSH1 0x0 PUSH1 0x3 SLOAD DUP3 TIMESTAMP PUSH2 0x8AC SWAP2 SWAP1 PUSH2 0x1675 JUMP JUMPDEST GT SWAP1 POP DUP1 DUP1 ISZERO PUSH2 0x8E3 JUMPI POP PUSH1 0x1 DUP1 DUP2 GT ISZERO PUSH2 0x8CA JUMPI PUSH2 0x8C9 PUSH2 0x1550 JUMP JUMPDEST JUMPDEST DUP4 PUSH1 0x20 ADD MLOAD PUSH1 0x1 DUP2 GT ISZERO PUSH2 0x8E1 JUMPI PUSH2 0x8E0 PUSH2 0x1550 JUMP JUMPDEST JUMPDEST EQ JUMPDEST ISZERO PUSH2 0x90B JUMPI DUP4 PUSH1 0x40 MLOAD PUSH1 0x20 ADD PUSH2 0x8F9 SWAP2 SWAP1 PUSH2 0x1960 JUMP JUMPDEST PUSH1 0x40 MLOAD PUSH1 0x20 DUP2 DUP4 SUB SUB DUP2 MSTORE SWAP1 PUSH1 0x40 MSTORE SWAP7 POP JUMPDEST DUP1 DUP1 ISZERO PUSH2 0x915 JUMPI POP DUP6 JUMPDEST DUP1 ISZERO PUSH2 0x948 JUMPI POP PUSH1 0x1 DUP1 DUP2 GT ISZERO PUSH2 0x92F JUMPI PUSH2 0x92E PUSH2 0x1550 JUMP JUMPDEST JUMPDEST DUP4 PUSH1 0x20 ADD MLOAD PUSH1 0x1 DUP2 GT ISZERO PUSH2 0x946 JUMPI PUSH2 0x945 PUSH2 0x1550 JUMP JUMPDEST JUMPDEST EQ JUMPDEST SWAP8 POP POP POP POP DUP1 DUP1 PUSH2 0x958 SWAP1 PUSH2 0x18B0 JUMP JUMPDEST SWAP2 POP POP PUSH2 0x74C JUMP JUMPDEST POP POP POP SWAP2 POP SWAP2 JUMP JUMPDEST PUSH1 0x5 PUSH1 0x0 SWAP1 SLOAD SWAP1 PUSH2 0x100 EXP SWAP1 DIV PUSH20 0xFFFFFFFFFFFFFFFFFFFFFFFFFFFFFFFFFFFFFFFF AND DUP2 JUMP JUMPDEST PUSH1 0x0 PUSH1 0x1 PUSH1 0x0 CALLER PUSH20 0xFFFFFFFFFFFFFFFFFFFFFFFFFFFFFFFFFFFFFFFF AND PUSH20 0xFFFFFFFFFFFFFFFFFFFFFFFFFFFFFFFFFFFFFFFF AND DUP2 MSTORE PUSH1 0x20 ADD SWAP1 DUP2 MSTORE PUSH1 0x20 ADD PUSH1 0x0 KECCAK256 PUSH1 0x40 MLOAD DUP1 PUSH1 0x40 ADD PUSH1 0x40 MSTORE SWAP1 DUP2 PUSH1 0x0 DUP3 ADD SLOAD DUP2 MSTORE PUSH1 0x20 ADD PUSH1 0x1 DUP3 ADD PUSH1 0x0 SWAP1 SLOAD SWAP1 PUSH2 0x100 EXP SWAP1 DIV PUSH1 0xFF AND PUSH1 0x1 DUP2 GT ISZERO PUSH2 0xA09 JUMPI PUSH2 0xA08 PUSH2 0x1550 JUMP JUMPDEST JUMPDEST PUSH1 0x1 DUP2 GT ISZERO PUSH2 0xA1B JUMPI PUSH2 0xA1A PUSH2 0x1550 JUMP JUMPDEST JUMPDEST DUP2 MSTORE POP POP SWAP1 POP PUSH1 0x1 DUP1 DUP2 GT ISZERO PUSH2 0xA34 JUMPI PUSH2 0xA33 PUSH2 0x1550 JUMP JUMPDEST JUMPDEST DUP2 PUSH1 0x20 ADD MLOAD PUSH1 0x1 DUP2 GT ISZERO PUSH2 0xA4B JUMPI PUSH2 0xA4A PUSH2 0x1550 JUMP JUMPDEST JUMPDEST EQ ISZERO PUSH2 0xA83 JUMPI PUSH1 0x40 MLOAD PUSH32 0xB7BB0AE300000000000000000000000000000000000000000000000000000000 DUP2 MSTORE PUSH1 0x4 ADD PUSH1 0x40 MLOAD DUP1 SWAP2 SUB SWAP1 REVERT JUMPDEST PUSH1 0x2 SLOAD CALLVALUE EQ PUSH2 0xABE JUMPI PUSH1 0x40 MLOAD PUSH32 0x78FF246500000000000000000000000000000000000000000000000000000000 DUP2 MSTORE PUSH1 0x4 ADD PUSH1 0x40 MLOAD DUP1 SWAP2 SUB SWAP1 REVERT JUMPDEST PUSH1 0x0 CALLER SWAP1 DUP1 PUSH1 0x1 DUP2 SLOAD ADD DUP1 DUP3 SSTORE DUP1 SWAP2 POP POP PUSH1 0x1 SWAP1 SUB SWAP1 PUSH1 0x0 MSTORE PUSH1 0x20 PUSH1 0x0 KECCAK256 ADD PUSH1 0x0 SWAP1 SWAP2 SWAP1 SWAP2 SWAP1 SWAP2 PUSH2 0x100 EXP DUP2 SLOAD DUP2 PUSH20 0xFFFFFFFFFFFFFFFFFFFFFFFFFFFFFFFFFFFFFFFF MUL NOT AND SWAP1 DUP4 PUSH20 0xFFFFFFFFFFFFFFFFFFFFFFFFFFFFFFFFFFFFFFFF AND MUL OR SWAP1 SSTORE POP PUSH1 0x0 PUSH1 0x1 PUSH1 0x0 CALLER PUSH20 0xFFFFFFFFFFFFFFFFFFFFFFFFFFFFFFFFFFFFFFFF AND PUSH20 0xFFFFFFFFFFFFFFFFFFFFFFFFFFFFFFFFFFFFFFFF AND DUP2 MSTORE PUSH1 0x20 ADD SWAP1 DUP2 MSTORE PUSH1 0x20 ADD PUSH1 0x0 KECCAK256 SWAP1 POP TIMESTAMP DUP2 PUSH1 0x0 ADD DUP2 SWAP1 SSTORE POP PUSH1 0x1 DUP2 PUSH1 0x1 ADD PUSH1 0x0 PUSH2 0x100 EXP DUP2 SLOAD DUP2 PUSH1 0xFF MUL NOT AND SWAP1 DUP4 PUSH1 0x1 DUP2 GT ISZERO PUSH2 0xB95 JUMPI PUSH2 0xB94 PUSH2 0x1550 JUMP JUMPDEST JUMPDEST MUL OR SWAP1 SSTORE POP POP POP JUMP JUMPDEST PUSH1 0x0 PUSH32 0x0 SWAP1 POP SWAP1 JUMP JUMPDEST PUSH2 0xBF4 PUSH1 0x2 SLOAD PUSH1 0x5 PUSH1 0x0 SWAP1 SLOAD SWAP1 PUSH2 0x100 EXP SWAP1 DIV PUSH20 0xFFFFFFFFFFFFFFFFFFFFFFFFFFFFFFFFFFFFFFFF AND PUSH2 0xE9F JUMP JUMPDEST PUSH1 0x4 DUP2 SWAP1 SSTORE POP JUMP JUMPDEST PUSH1 0x0 DUP1 PUSH1 0x2 SLOAD PUSH1 0x4 SLOAD SWAP2 POP SWAP2 POP SWAP1 SWAP2 JUMP JUMPDEST PUSH1 0x60 PUSH1 0x0 DUP1 DUP1 SLOAD SWAP1 POP PUSH8 0xFFFFFFFFFFFFFFFF DUP2 GT ISZERO PUSH2 0xC2F JUMPI PUSH2 0xC2E PUSH2 0x1078 JUMP JUMPDEST JUMPDEST PUSH1 0x40 MLOAD SWAP1 DUP1 DUP3 MSTORE DUP1 PUSH1 0x20 MUL PUSH1 0x20 ADD DUP3 ADD PUSH1 0x40 MSTORE DUP1 ISZERO PUSH2 0xC5D JUMPI DUP2 PUSH1 0x20 ADD PUSH1 0x20 DUP3 MUL DUP1 CALLDATASIZE DUP4 CALLDATACOPY DUP1 DUP3 ADD SWAP2 POP POP SWAP1 POP JUMPDEST POP SWAP1 POP PUSH1 0x0 JUMPDEST PUSH1 0x0 DUP1 SLOAD SWAP1 POP DUP2 LT ISZERO PUSH2 0xD0F JUMPI PUSH1 0x0 DUP2 DUP2 SLOAD DUP2 LT PUSH2 0xC84 JUMPI PUSH2 0xC83 PUSH2 0x1881 JUMP JUMPDEST JUMPDEST SWAP1 PUSH1 0x0 MSTORE PUSH1 0x20 PUSH1 0x0 KECCAK256 ADD PUSH1 0x0 SWAP1 SLOAD SWAP1 PUSH2 0x100 EXP SWAP1 DIV PUSH20 0xFFFFFFFFFFFFFFFFFFFFFFFFFFFFFFFFFFFFFFFF AND DUP3 DUP3 DUP2 MLOAD DUP2 LT PUSH2 0xCC2 JUMPI PUSH2 0xCC1 PUSH2 0x1881 JUMP JUMPDEST JUMPDEST PUSH1 0x20 MUL PUSH1 0x20 ADD ADD SWAP1 PUSH20 0xFFFFFFFFFFFFFFFFFFFFFFFFFFFFFFFFFFFFFFFF AND SWAP1 DUP2 PUSH20 0xFFFFFFFFFFFFFFFFFFFFFFFFFFFFFFFFFFFFFFFF AND DUP2 MSTORE POP POP DUP1 DUP1 PUSH2 0xD07 SWAP1 PUSH2 0x18B0 JUMP JUMPDEST SWAP2 POP POP PUSH2 0xC63 JUMP JUMPDEST POP DUP1 SWAP2 POP POP SWAP1 JUMP JUMPDEST PUSH32 0x0 PUSH20 0xFFFFFFFFFFFFFFFFFFFFFFFFFFFFFFFFFFFFFFFF AND CALLER PUSH20 0xFFFFFFFFFFFFFFFFFFFFFFFFFFFFFFFFFFFFFFFF AND EQ PUSH2 0xD6F JUMPI PUSH1 0x0 DUP1 REVERT JUMPDEST DUP1 PUSH1 0x2 DUP2 SWAP1 SSTORE POP POP JUMP JUMPDEST PUSH1 0x0 DUP1 PUSH32 0x0 PUSH20 0xFFFFFFFFFFFFFFFFFFFFFFFFFFFFFFFFFFFFFFFF AND CALLER PUSH20 0xFFFFFFFFFFFFFFFFFFFFFFFFFFFFFFFFFFFFFFFF AND EQ PUSH2 0xDD4 JUMPI PUSH1 0x0 DUP1 REVERT JUMPDEST PUSH1 0x0 PUSH1 0x1 PUSH1 0x0 DUP6 PUSH20 0xFFFFFFFFFFFFFFFFFFFFFFFFFFFFFFFFFFFFFFFF AND PUSH20 0xFFFFFFFFFFFFFFFFFFFFFFFFFFFFFFFFFFFFFFFF AND DUP2 MSTORE PUSH1 0x20 ADD SWAP1 DUP2 MSTORE PUSH1 0x20 ADD PUSH1 0x0 KECCAK256 PUSH1 0x40 MLOAD DUP1 PUSH1 0x40 ADD PUSH1 0x40 MSTORE SWAP1 DUP2 PUSH1 0x0 DUP3 ADD SLOAD DUP2 MSTORE PUSH1 0x20 ADD PUSH1 0x1 DUP3 ADD PUSH1 0x0 SWAP1 SLOAD SWAP1 PUSH2 0x100 EXP SWAP1 DIV PUSH1 0xFF AND PUSH1 0x1 DUP2 GT ISZERO PUSH2 0xE4F JUMPI PUSH2 0xE4E PUSH2 0x1550 JUMP JUMPDEST JUMPDEST PUSH1 0x1 DUP2 GT ISZERO PUSH2 0xE61 JUMPI PUSH2 0xE60 PUSH2 0x1550 JUMP JUMPDEST JUMPDEST DUP2 MSTORE POP POP SWAP1 POP DUP1 PUSH1 0x0 ADD MLOAD DUP2 PUSH1 0x20 ADD MLOAD SWAP3 POP SWAP3 POP POP SWAP2 POP SWAP2 JUMP JUMPDEST PUSH32 0x0 DUP2 JUMP JUMPDEST PUSH1 0x0 DUP1 PUSH2 0xEAB DUP4 PUSH2 0xED8 JUMP JUMPDEST SWAP1 POP PUSH1 0x0 DUP2 PUSH5 0x174876E800 DUP7 PUSH2 0xEC1 SWAP2 SWAP1 PUSH2 0x16A9 JUMP JUMPDEST PUSH2 0xECB SWAP2 SWAP1 PUSH2 0x19AA JUMP JUMPDEST SWAP1 POP DUP1 SWAP3 POP POP POP SWAP3 SWAP2 POP POP JUMP JUMPDEST PUSH1 0x0 DUP1 DUP3 PUSH20 0xFFFFFFFFFFFFFFFFFFFFFFFFFFFFFFFFFFFFFFFF AND PUSH4 0xFEAF968C PUSH1 0x40 MLOAD DUP2 PUSH4 0xFFFFFFFF AND PUSH1 0xE0 SHL DUP2 MSTORE PUSH1 0x4 ADD PUSH1 0xA0 PUSH1 0x40 MLOAD DUP1 DUP4 SUB DUP2 DUP7 DUP1 EXTCODESIZE ISZERO DUP1 ISZERO PUSH2 0xF21 JUMPI PUSH1 0x0 DUP1 REVERT JUMPDEST POP GAS STATICCALL ISZERO DUP1 ISZERO PUSH2 0xF35 JUMPI RETURNDATASIZE PUSH1 0x0 DUP1 RETURNDATACOPY RETURNDATASIZE PUSH1 0x0 REVERT JUMPDEST POP POP POP POP PUSH1 0x40 MLOAD RETURNDATASIZE PUSH1 0x1F NOT PUSH1 0x1F DUP3 ADD AND DUP3 ADD DUP1 PUSH1 0x40 MSTORE POP DUP2 ADD SWAP1 PUSH2 0xF59 SWAP2 SWAP1 PUSH2 0x1A68 JUMP JUMPDEST POP POP POP SWAP2 POP POP DUP1 SWAP2 POP POP SWAP2 SWAP1 POP JUMP JUMPDEST PUSH1 0x0 DUP2 SWAP1 POP SWAP2 SWAP1 POP JUMP JUMPDEST PUSH2 0xF7B DUP2 PUSH2 0xF68 JUMP JUMPDEST DUP3 MSTORE POP POP JUMP JUMPDEST PUSH1 0x0 PUSH1 0x20 DUP3 ADD SWAP1 POP PUSH2 0xF96 PUSH1 0x0 DUP4 ADD DUP5 PUSH2 0xF72 JUMP JUMPDEST SWAP3 SWAP2 POP POP JUMP JUMPDEST PUSH1 0x0 PUSH1 0x40 MLOAD SWAP1 POP SWAP1 JUMP JUMPDEST PUSH1 0x0 DUP1 REVERT JUMPDEST PUSH1 0x0 DUP1 REVERT JUMPDEST PUSH1 0x0 DUP1 REVERT JUMPDEST PUSH1 0x0 DUP1 REVERT JUMPDEST PUSH1 0x0 DUP1 REVERT JUMPDEST PUSH1 0x0 DUP1 DUP4 PUSH1 0x1F DUP5 ADD SLT PUSH2 0xFD5 JUMPI PUSH2 0xFD4 PUSH2 0xFB0 JUMP JUMPDEST JUMPDEST DUP3 CALLDATALOAD SWAP1 POP PUSH8 0xFFFFFFFFFFFFFFFF DUP2 GT ISZERO PUSH2 0xFF2 JUMPI PUSH2 0xFF1 PUSH2 0xFB5 JUMP JUMPDEST JUMPDEST PUSH1 0x20 DUP4 ADD SWAP2 POP DUP4 PUSH1 0x1 DUP3 MUL DUP4 ADD GT ISZERO PUSH2 0x100E JUMPI PUSH2 0x100D PUSH2 0xFBA JUMP JUMPDEST JUMPDEST SWAP3 POP SWAP3 SWAP1 POP JUMP JUMPDEST PUSH1 0x0 DUP1 PUSH1 0x20 DUP4 DUP6 SUB SLT ISZERO PUSH2 0x102C JUMPI PUSH2 0x102B PUSH2 0xFA6 JUMP JUMPDEST JUMPDEST PUSH1 0x0 DUP4 ADD CALLDATALOAD PUSH8 0xFFFFFFFFFFFFFFFF DUP2 GT ISZERO PUSH2 0x104A JUMPI PUSH2 0x1049 PUSH2 0xFAB JUMP JUMPDEST JUMPDEST PUSH2 0x1056 DUP6 DUP3 DUP7 ADD PUSH2 0xFBF JUMP JUMPDEST SWAP3 POP SWAP3 POP POP SWAP3 POP SWAP3 SWAP1 POP JUMP JUMPDEST PUSH1 0x0 DUP1 REVERT JUMPDEST PUSH1 0x0 PUSH1 0x1F NOT PUSH1 0x1F DUP4 ADD AND SWAP1 POP SWAP2 SWAP1 POP JUMP JUMPDEST PUSH32 0x4E487B7100000000000000000000000000000000000000000000000000000000 PUSH1 0x0 MSTORE PUSH1 0x41 PUSH1 0x4 MSTORE PUSH1 0x24 PUSH1 0x0 REVERT JUMPDEST PUSH2 0x10B0 DUP3 PUSH2 0x1067 JUMP JUMPDEST DUP2 ADD DUP2 DUP2 LT PUSH8 0xFFFFFFFFFFFFFFFF DUP3 GT OR ISZERO PUSH2 0x10CF JUMPI PUSH2 0x10CE PUSH2 0x1078 JUMP JUMPDEST JUMPDEST DUP1 PUSH1 0x40 MSTORE POP POP POP JUMP JUMPDEST PUSH1 0x0 PUSH2 0x10E2 PUSH2 0xF9C JUMP JUMPDEST SWAP1 POP PUSH2 0x10EE DUP3 DUP3 PUSH2 0x10A7 JUMP JUMPDEST SWAP2 SWAP1 POP JUMP JUMPDEST PUSH1 0x0 PUSH8 0xFFFFFFFFFFFFFFFF DUP3 GT ISZERO PUSH2 0x110E JUMPI PUSH2 0x110D PUSH2 0x1078 JUMP JUMPDEST JUMPDEST PUSH2 0x1117 DUP3 PUSH2 0x1067 JUMP JUMPDEST SWAP1 POP PUSH1 0x20 DUP2 ADD SWAP1 POP SWAP2 SWAP1 POP JUMP JUMPDEST DUP3 DUP2 DUP4 CALLDATACOPY PUSH1 0x0 DUP4 DUP4 ADD MSTORE POP POP POP JUMP JUMPDEST PUSH1 0x0 PUSH2 0x1146 PUSH2 0x1141 DUP5 PUSH2 0x10F3 JUMP JUMPDEST PUSH2 0x10D8 JUMP JUMPDEST SWAP1 POP DUP3 DUP2 MSTORE PUSH1 0x20 DUP2 ADD DUP5 DUP5 DUP5 ADD GT ISZERO PUSH2 0x1162 JUMPI PUSH2 0x1161 PUSH2 0x1062 JUMP JUMPDEST JUMPDEST PUSH2 0x116D DUP5 DUP3 DUP6 PUSH2 0x1124 JUMP JUMPDEST POP SWAP4 SWAP3 POP POP POP JUMP JUMPDEST PUSH1 0x0 DUP3 PUSH1 0x1F DUP4 ADD SLT PUSH2 0x118A JUMPI PUSH2 0x1189 PUSH2 0xFB0 JUMP JUMPDEST JUMPDEST DUP2 CALLDATALOAD PUSH2 0x119A DUP5 DUP3 PUSH1 0x20 DUP7 ADD PUSH2 0x1133 JUMP JUMPDEST SWAP2 POP POP SWAP3 SWAP2 POP POP JUMP JUMPDEST PUSH1 0x0 PUSH1 0x20 DUP3 DUP5 SUB SLT ISZERO PUSH2 0x11B9 JUMPI PUSH2 0x11B8 PUSH2 0xFA6 JUMP JUMPDEST JUMPDEST PUSH1 0x0 DUP3 ADD CALLDATALOAD PUSH8 0xFFFFFFFFFFFFFFFF DUP2 GT ISZERO PUSH2 0x11D7 JUMPI PUSH2 0x11D6 PUSH2 0xFAB JUMP JUMPDEST JUMPDEST PUSH2 0x11E3 DUP5 DUP3 DUP6 ADD PUSH2 0x1175 JUMP JUMPDEST SWAP2 POP POP SWAP3 SWAP2 POP POP JUMP JUMPDEST PUSH1 0x0 DUP2 ISZERO ISZERO SWAP1 POP SWAP2 SWAP1 POP JUMP JUMPDEST PUSH2 0x1201 DUP2 PUSH2 0x11EC JUMP JUMPDEST DUP3 MSTORE POP POP JUMP JUMPDEST PUSH1 0x0 DUP2 MLOAD SWAP1 POP SWAP2 SWAP1 POP JUMP JUMPDEST PUSH1 0x0 DUP3 DUP3 MSTORE PUSH1 0x20 DUP3 ADD SWAP1 POP SWAP3 SWAP2 POP POP JUMP JUMPDEST PUSH1 0x0 JUMPDEST DUP4 DUP2 LT ISZERO PUSH2 0x1241 JUMPI DUP1 DUP3 ADD MLOAD DUP2 DUP5 ADD MSTORE PUSH1 0x20 DUP2 ADD SWAP1 POP PUSH2 0x1226 JUMP JUMPDEST DUP4 DUP2 GT ISZERO PUSH2 0x1250 JUMPI PUSH1 0x0 DUP5 DUP5 ADD MSTORE JUMPDEST POP POP POP POP JUMP JUMPDEST PUSH1 0x0 PUSH2 0x1261 DUP3 PUSH2 0x1207 JUMP JUMPDEST PUSH2 0x126B DUP2 DUP6 PUSH2 0x1212 JUMP JUMPDEST SWAP4 POP PUSH2 0x127B DUP2 DUP6 PUSH1 0x20 DUP7 ADD PUSH2 0x1223 JUMP JUMPDEST PUSH2 0x1284 DUP2 PUSH2 0x1067 JUMP JUMPDEST DUP5 ADD SWAP2 POP POP SWAP3 SWAP2 POP POP JUMP JUMPDEST PUSH1 0x0 PUSH1 0x40 DUP3 ADD SWAP1 POP PUSH2 0x12A4 PUSH1 0x0 DUP4 ADD DUP6 PUSH2 0x11F8 JUMP JUMPDEST DUP2 DUP2 SUB PUSH1 0x20 DUP4 ADD MSTORE PUSH2 0x12B6 DUP2 DUP5 PUSH2 0x1256 JUMP JUMPDEST SWAP1 POP SWAP4 SWAP3 POP POP POP JUMP JUMPDEST PUSH1 0x0 PUSH20 0xFFFFFFFFFFFFFFFFFFFFFFFFFFFFFFFFFFFFFFFF DUP3 AND SWAP1 POP SWAP2 SWAP1 POP JUMP JUMPDEST PUSH1 0x0 DUP2 SWAP1 POP SWAP2 SWAP1 POP JUMP JUMPDEST PUSH1 0x0 PUSH2 0x1304 PUSH2 0x12FF PUSH2 0x12FA DUP5 PUSH2 0x12BF JUMP JUMPDEST PUSH2 0x12DF JUMP JUMPDEST PUSH2 0x12BF JUMP JUMPDEST SWAP1 POP SWAP2 SWAP1 POP JUMP JUMPDEST PUSH1 0x0 PUSH2 0x1316 DUP3 PUSH2 0x12E9 JUMP JUMPDEST SWAP1 POP SWAP2 SWAP1 POP JUMP JUMPDEST PUSH1 0x0 PUSH2 0x1328 DUP3 PUSH2 0x130B JUMP JUMPDEST SWAP1 POP SWAP2 SWAP1 POP JUMP JUMPDEST PUSH2 0x1338 DUP2 PUSH2 0x131D JUMP JUMPDEST DUP3 MSTORE POP POP JUMP JUMPDEST PUSH1 0x0 PUSH1 0x20 DUP3 ADD SWAP1 POP PUSH2 0x1353 PUSH1 0x0 DUP4 ADD DUP5 PUSH2 0x132F JUMP JUMPDEST SWAP3 SWAP2 POP POP JUMP JUMPDEST PUSH1 0x0 PUSH2 0x1364 DUP3 PUSH2 0x12BF JUMP JUMPDEST SWAP1 POP SWAP2 SWAP1 POP JUMP JUMPDEST PUSH2 0x1374 DUP2 PUSH2 0x1359 JUMP JUMPDEST DUP3 MSTORE POP POP JUMP JUMPDEST PUSH1 0x0 PUSH1 0x20 DUP3 ADD SWAP1 POP PUSH2 0x138F PUSH1 0x0 DUP4 ADD DUP5 PUSH2 0x136B JUMP JUMPDEST SWAP3 SWAP2 POP POP JUMP JUMPDEST PUSH1 0x0 PUSH1 0x40 DUP3 ADD SWAP1 POP PUSH2 0x13AA PUSH1 0x0 DUP4 ADD DUP6 PUSH2 0xF72 JUMP JUMPDEST PUSH2 0x13B7 PUSH1 0x20 DUP4 ADD DUP5 PUSH2 0xF72 JUMP JUMPDEST SWAP4 SWAP3 POP POP POP JUMP JUMPDEST PUSH1 0x0 DUP2 MLOAD SWAP1 POP SWAP2 SWAP1 POP JUMP JUMPDEST PUSH1 0x0 DUP3 DUP3 MSTORE PUSH1 0x20 DUP3 ADD SWAP1 POP SWAP3 SWAP2 POP POP JUMP JUMPDEST PUSH1 0x0 DUP2 SWAP1 POP PUSH1 0x20 DUP3 ADD SWAP1 POP SWAP2 SWAP1 POP JUMP JUMPDEST PUSH2 0x13F3 DUP2 PUSH2 0x1359 JUMP JUMPDEST DUP3 MSTORE POP POP JUMP JUMPDEST PUSH1 0x0 PUSH2 0x1405 DUP4 DUP4 PUSH2 0x13EA JUMP JUMPDEST PUSH1 0x20 DUP4 ADD SWAP1 POP SWAP3 SWAP2 POP POP JUMP JUMPDEST PUSH1 0x0 PUSH1 0x20 DUP3 ADD SWAP1 POP SWAP2 SWAP1 POP JUMP JUMPDEST PUSH1 0x0 PUSH2 0x1429 DUP3 PUSH2 0x13BE JUMP JUMPDEST PUSH2 0x1433 DUP2 DUP6 PUSH2 0x13C9 JUMP JUMPDEST SWAP4 POP PUSH2 0x143E DUP4 PUSH2 0x13DA JUMP JUMPDEST DUP1 PUSH1 0x0 JUMPDEST DUP4 DUP2 LT ISZERO PUSH2 0x146F JUMPI DUP2 MLOAD PUSH2 0x1456 DUP9 DUP3 PUSH2 0x13F9 JUMP JUMPDEST SWAP8 POP PUSH2 0x1461 DUP4 PUSH2 0x1411 JUMP JUMPDEST SWAP3 POP POP PUSH1 0x1 DUP2 ADD SWAP1 POP PUSH2 0x1442 JUMP JUMPDEST POP DUP6 SWAP4 POP POP POP POP SWAP3 SWAP2 POP POP JUMP JUMPDEST PUSH1 0x0 PUSH1 0x20 DUP3 ADD SWAP1 POP DUP2 DUP2 SUB PUSH1 0x0 DUP4 ADD MSTORE PUSH2 0x1496 DUP2 DUP5 PUSH2 0x141E JUMP JUMPDEST SWAP1 POP SWAP3 SWAP2 POP POP JUMP JUMPDEST PUSH2 0x14A7 DUP2 PUSH2 0xF68 JUMP JUMPDEST DUP2 EQ PUSH2 0x14B2 JUMPI PUSH1 0x0 DUP1 REVERT JUMPDEST POP JUMP JUMPDEST PUSH1 0x0 DUP2 CALLDATALOAD SWAP1 POP PUSH2 0x14C4 DUP2 PUSH2 0x149E JUMP JUMPDEST SWAP3 SWAP2 POP POP JUMP JUMPDEST PUSH1 0x0 PUSH1 0x20 DUP3 DUP5 SUB SLT ISZERO PUSH2 0x14E0 JUMPI PUSH2 0x14DF PUSH2 0xFA6 JUMP JUMPDEST JUMPDEST PUSH1 0x0 PUSH2 0x14EE DUP5 DUP3 DUP6 ADD PUSH2 0x14B5 JUMP JUMPDEST SWAP2 POP POP SWAP3 SWAP2 POP POP JUMP JUMPDEST PUSH2 0x1500 DUP2 PUSH2 0x1359 JUMP JUMPDEST DUP2 EQ PUSH2 0x150B JUMPI PUSH1 0x0 DUP1 REVERT JUMPDEST POP JUMP JUMPDEST PUSH1 0x0 DUP2 CALLDATALOAD SWAP1 POP PUSH2 0x151D DUP2 PUSH2 0x14F7 JUMP JUMPDEST SWAP3 SWAP2 POP POP JUMP JUMPDEST PUSH1 0x0 PUSH1 0x20 DUP3 DUP5 SUB SLT ISZERO PUSH2 0x1539 JUMPI PUSH2 0x1538 PUSH2 0xFA6 JUMP JUMPDEST JUMPDEST PUSH1 0x0 PUSH2 0x1547 DUP5 DUP3 DUP6 ADD PUSH2 0x150E JUMP JUMPDEST SWAP2 POP POP SWAP3 SWAP2 POP POP JUMP JUMPDEST PUSH32 0x4E487B7100000000000000000000000000000000000000000000000000000000 PUSH1 0x0 MSTORE PUSH1 0x21 PUSH1 0x4 MSTORE PUSH1 0x24 PUSH1 0x0 REVERT JUMPDEST PUSH1 0x2 DUP2 LT PUSH2 0x1590 JUMPI PUSH2 0x158F PUSH2 0x1550 JUMP JUMPDEST JUMPDEST POP JUMP JUMPDEST PUSH1 0x0 DUP2 SWAP1 POP PUSH2 0x15A1 DUP3 PUSH2 0x157F JUMP JUMPDEST SWAP2 SWAP1 POP JUMP JUMPDEST PUSH1 0x0 PUSH2 0x15B1 DUP3 PUSH2 0x1593 JUMP JUMPDEST SWAP1 POP SWAP2 SWAP1 POP JUMP JUMPDEST PUSH2 0x15C1 DUP2 PUSH2 0x15A6 JUMP JUMPDEST DUP3 MSTORE POP POP JUMP JUMPDEST PUSH1 0x0 PUSH1 0x40 DUP3 ADD SWAP1 POP PUSH2 0x15DC PUSH1 0x0 DUP4 ADD DUP6 PUSH2 0xF72 JUMP JUMPDEST PUSH2 0x15E9 PUSH1 0x20 DUP4 ADD DUP5 PUSH2 0x15B8 JUMP JUMPDEST SWAP4 SWAP3 POP POP POP JUMP JUMPDEST PUSH32 0x4E487B7100000000000000000000000000000000000000000000000000000000 PUSH1 0x0 MSTORE PUSH1 0x11 PUSH1 0x4 MSTORE PUSH1 0x24 PUSH1 0x0 REVERT JUMPDEST PUSH1 0x0 PUSH2 0x162A DUP3 PUSH2 0xF68 JUMP JUMPDEST SWAP2 POP PUSH2 0x1635 DUP4 PUSH2 0xF68 JUMP JUMPDEST SWAP3 POP DUP3 PUSH32 0xFFFFFFFFFFFFFFFFFFFFFFFFFFFFFFFFFFFFFFFFFFFFFFFFFFFFFFFFFFFFFFFF SUB DUP3 GT ISZERO PUSH2 0x166A JUMPI PUSH2 0x1669 PUSH2 0x15F0 JUMP JUMPDEST JUMPDEST DUP3 DUP3 ADD SWAP1 POP SWAP3 SWAP2 POP POP JUMP JUMPDEST PUSH1 0x0 PUSH2 0x1680 DUP3 PUSH2 0xF68 JUMP JUMPDEST SWAP2 POP PUSH2 0x168B DUP4 PUSH2 0xF68 JUMP JUMPDEST SWAP3 POP DUP3 DUP3 LT ISZERO PUSH2 0x169E JUMPI PUSH2 0x169D PUSH2 0x15F0 JUMP JUMPDEST JUMPDEST DUP3 DUP3 SUB SWAP1 POP SWAP3 SWAP2 POP POP JUMP JUMPDEST PUSH1 0x0 PUSH2 0x16B4 DUP3 PUSH2 0xF68 JUMP JUMPDEST SWAP2 POP PUSH2 0x16BF DUP4 PUSH2 0xF68 JUMP JUMPDEST SWAP3 POP DUP2 PUSH32 0xFFFFFFFFFFFFFFFFFFFFFFFFFFFFFFFFFFFFFFFFFFFFFFFFFFFFFFFFFFFFFFFF DIV DUP4 GT DUP3 ISZERO ISZERO AND ISZERO PUSH2 0x16F8 JUMPI PUSH2 0x16F7 PUSH2 0x15F0 JUMP JUMPDEST JUMPDEST DUP3 DUP3 MUL SWAP1 POP SWAP3 SWAP2 POP POP JUMP JUMPDEST PUSH1 0x0 DUP2 PUSH1 0x1 SHR SWAP1 POP SWAP2 SWAP1 POP JUMP JUMPDEST PUSH1 0x0 DUP1 DUP3 SWAP2 POP DUP4 SWAP1 POP JUMPDEST PUSH1 0x1 DUP6 GT ISZERO PUSH2 0x175A JUMPI DUP1 DUP7 DIV DUP2 GT ISZERO PUSH2 0x1736 JUMPI PUSH2 0x1735 PUSH2 0x15F0 JUMP JUMPDEST JUMPDEST PUSH1 0x1 DUP6 AND ISZERO PUSH2 0x1745 JUMPI DUP1 DUP3 MUL SWAP2 POP JUMPDEST DUP1 DUP2 MUL SWAP1 POP PUSH2 0x1753 DUP6 PUSH2 0x1703 JUMP JUMPDEST SWAP5 POP PUSH2 0x171A JUMP JUMPDEST SWAP5 POP SWAP5 SWAP3 POP POP POP JUMP JUMPDEST PUSH1 0x0 DUP3 PUSH2 0x1773 JUMPI PUSH1 0x1 SWAP1 POP PUSH2 0x182F JUMP JUMPDEST DUP2 PUSH2 0x1781 JUMPI PUSH1 0x0 SWAP1 POP PUSH2 0x182F JUMP JUMPDEST DUP2 PUSH1 0x1 DUP2 EQ PUSH2 0x1797 JUMPI PUSH1 0x2 DUP2 EQ PUSH2 0x17A1 JUMPI PUSH2 0x17D0 JUMP JUMPDEST PUSH1 0x1 SWAP2 POP POP PUSH2 0x182F JUMP JUMPDEST PUSH1 0xFF DUP5 GT ISZERO PUSH2 0x17B3 JUMPI PUSH2 0x17B2 PUSH2 0x15F0 JUMP JUMPDEST JUMPDEST DUP4 PUSH1 0x2 EXP SWAP2 POP DUP5 DUP3 GT ISZERO PUSH2 0x17CA JUMPI PUSH2 0x17C9 PUSH2 0x15F0 JUMP JUMPDEST JUMPDEST POP PUSH2 0x182F JUMP JUMPDEST POP PUSH1 0x20 DUP4 LT PUSH2 0x133 DUP4 LT AND PUSH1 0x4E DUP5 LT PUSH1 0xB DUP5 LT AND OR ISZERO PUSH2 0x1805 JUMPI DUP3 DUP3 EXP SWAP1 POP DUP4 DUP2 GT ISZERO PUSH2 0x1800 JUMPI PUSH2 0x17FF PUSH2 0x15F0 JUMP JUMPDEST JUMPDEST PUSH2 0x182F JUMP JUMPDEST PUSH2 0x1812 DUP5 DUP5 DUP5 PUSH1 0x1 PUSH2 0x1710 JUMP JUMPDEST SWAP3 POP SWAP1 POP DUP2 DUP5 DIV DUP2 GT ISZERO PUSH2 0x1829 JUMPI PUSH2 0x1828 PUSH2 0x15F0 JUMP JUMPDEST JUMPDEST DUP2 DUP2 MUL SWAP1 POP JUMPDEST SWAP4 SWAP3 POP POP POP JUMP JUMPDEST PUSH1 0x0 PUSH2 0x1841 DUP3 PUSH2 0xF68 JUMP JUMPDEST SWAP2 POP PUSH2 0x184C DUP4 PUSH2 0xF68 JUMP JUMPDEST SWAP3 POP PUSH2 0x1879 PUSH32 0xFFFFFFFFFFFFFFFFFFFFFFFFFFFFFFFFFFFFFFFFFFFFFFFFFFFFFFFFFFFFFFFF DUP5 DUP5 PUSH2 0x1763 JUMP JUMPDEST SWAP1 POP SWAP3 SWAP2 POP POP JUMP JUMPDEST PUSH32 0x4E487B7100000000000000000000000000000000000000000000000000000000 PUSH1 0x0 MSTORE PUSH1 0x32 PUSH1 0x4 MSTORE PUSH1 0x24 PUSH1 0x0 REVERT JUMPDEST PUSH1 0x0 PUSH2 0x18BB DUP3 PUSH2 0xF68 JUMP JUMPDEST SWAP2 POP PUSH32 0xFFFFFFFFFFFFFFFFFFFFFFFFFFFFFFFFFFFFFFFFFFFFFFFFFFFFFFFFFFFFFFFF DUP3 EQ ISZERO PUSH2 0x18EE JUMPI PUSH2 0x18ED PUSH2 0x15F0 JUMP JUMPDEST JUMPDEST PUSH1 0x1 DUP3 ADD SWAP1 POP SWAP2 SWAP1 POP JUMP JUMPDEST PUSH1 0x0 DUP2 SWAP1 POP SWAP3 SWAP2 POP POP JUMP JUMPDEST POP JUMP JUMPDEST PUSH1 0x0 PUSH2 0x1914 PUSH1 0x0 DUP4 PUSH2 0x18F9 JUMP JUMPDEST SWAP2 POP PUSH2 0x191F DUP3 PUSH2 0x1904 JUMP JUMPDEST PUSH1 0x0 DUP3 ADD SWAP1 POP SWAP2 SWAP1 POP JUMP JUMPDEST PUSH1 0x0 PUSH2 0x1935 DUP3 PUSH2 0x1907 JUMP JUMPDEST SWAP2 POP DUP2 SWAP1 POP SWAP2 SWAP1 POP JUMP JUMPDEST PUSH1 0x0 DUP2 SWAP1 POP SWAP2 SWAP1 POP JUMP JUMPDEST PUSH2 0x195A PUSH2 0x1955 DUP3 PUSH2 0xF68 JUMP JUMPDEST PUSH2 0x193F JUMP JUMPDEST DUP3 MSTORE POP POP JUMP JUMPDEST PUSH1 0x0 PUSH2 0x196C DUP3 DUP5 PUSH2 0x1949 JUMP JUMPDEST PUSH1 0x20 DUP3 ADD SWAP2 POP DUP2 SWAP1 POP SWAP3 SWAP2 POP POP JUMP JUMPDEST PUSH32 0x4E487B7100000000000000000000000000000000000000000000000000000000 PUSH1 0x0 MSTORE PUSH1 0x12 PUSH1 0x4 MSTORE PUSH1 0x24 PUSH1 0x0 REVERT JUMPDEST PUSH1 0x0 PUSH2 0x19B5 DUP3 PUSH2 0xF68 JUMP JUMPDEST SWAP2 POP PUSH2 0x19C0 DUP4 PUSH2 0xF68 JUMP JUMPDEST SWAP3 POP DUP3 PUSH2 0x19D0 JUMPI PUSH2 0x19CF PUSH2 0x197B JUMP JUMPDEST JUMPDEST DUP3 DUP3 DIV SWAP1 POP SWAP3 SWAP2 POP POP JUMP JUMPDEST PUSH1 0x0 PUSH10 0xFFFFFFFFFFFFFFFFFFFF DUP3 AND SWAP1 POP SWAP2 SWAP1 POP JUMP JUMPDEST PUSH2 0x19FA DUP2 PUSH2 0x19DB JUMP JUMPDEST DUP2 EQ PUSH2 0x1A05 JUMPI PUSH1 0x0 DUP1 REVERT JUMPDEST POP JUMP JUMPDEST PUSH1 0x0 DUP2 MLOAD SWAP1 POP PUSH2 0x1A17 DUP2 PUSH2 0x19F1 JUMP JUMPDEST SWAP3 SWAP2 POP POP JUMP JUMPDEST PUSH1 0x0 DUP2 SWAP1 POP SWAP2 SWAP1 POP JUMP JUMPDEST PUSH2 0x1A30 DUP2 PUSH2 0x1A1D JUMP JUMPDEST DUP2 EQ PUSH2 0x1A3B JUMPI PUSH1 0x0 DUP1 REVERT JUMPDEST POP JUMP JUMPDEST PUSH1 0x0 DUP2 MLOAD SWAP1 POP PUSH2 0x1A4D DUP2 PUSH2 0x1A27 JUMP JUMPDEST SWAP3 SWAP2 POP POP JUMP JUMPDEST PUSH1 0x0 DUP2 MLOAD SWAP1 POP PUSH2 0x1A62 DUP2 PUSH2 0x149E JUMP JUMPDEST SWAP3 SWAP2 POP POP JUMP JUMPDEST PUSH1 0x0 DUP1 PUSH1 0x0 DUP1 PUSH1 0x0 PUSH1 0xA0 DUP7 DUP9 SUB SLT ISZERO PUSH2 0x1A84 JUMPI PUSH2 0x1A83 PUSH2 0xFA6 JUMP JUMPDEST JUMPDEST PUSH1 0x0 PUSH2 0x1A92 DUP9 DUP3 DUP10 ADD PUSH2 0x1A08 JUMP JUMPDEST SWAP6 POP POP PUSH1 0x20 PUSH2 0x1AA3 DUP9 DUP3 DUP10 ADD PUSH2 0x1A3E JUMP JUMPDEST SWAP5 POP POP PUSH1 0x40 PUSH2 0x1AB4 DUP9 DUP3 DUP10 ADD PUSH2 0x1A53 JUMP JUMPDEST SWAP4 POP POP PUSH1 0x60 PUSH2 0x1AC5 DUP9 DUP3 DUP10 ADD PUSH2 0x1A53 JUMP JUMPDEST SWAP3 POP POP PUSH1 0x80 PUSH2 0x1AD6 DUP9 DUP3 DUP10 ADD PUSH2 0x1A08 JUMP JUMPDEST SWAP2 POP POP SWAP3 SWAP6 POP SWAP3 SWAP6 SWAP1 SWAP4 POP JUMP INVALID LOG2 PUSH5 0x6970667358 0x22 SLT KECCAK256 0xA6 0x2C 0xC9 PUSH29 0x4DE6FDB28D0359BD875584BB20575AB972A5D99824B37B2E7B5A477E64 PUSH20 0x6F6C634300080800330000000000000000000000 "
        },
        "gasEstimates": {
          "creation": {
            "codeDepositCost": "1387400",
            "executionCost": "infinite",
            "totalCost": "infinite"
          },
          "external": {
            "EthValue()": "2505",
            "PriceConversion()": "infinite",
            "Subscription()": "101910",
            "Withdraw()": "infinite",
            "callTimer(address)": "infinite",
            "changePrice(uint256)": "infinite",
            "checkUpkeep(bytes)": "infinite",
            "getBalance()": "infinite",
            "getMembers()": "infinite",
            "getOwner()": "infinite",
            "getPrice()": "infinite",
            "getSubscribers()": "2469",
            "i_owner()": "infinite",
            "performUpkeep(bytes)": "infinite",
            "priceFeed()": "infinite"
          }
        },
        "methodIdentifiers": {
          "EthValue()": "26a361d4",
          "PriceConversion()": "904a312c",
          "Subscription()": "856365d1",
          "Withdraw()": "57ea89b6",
          "callTimer(address)": "bc19f7c5",
          "changePrice(uint256)": "a2b40d19",
          "checkUpkeep(bytes)": "6e04ff0d",
          "getBalance()": "12065fe0",
          "getMembers()": "9eab5253",
          "getOwner()": "893d20e8",
          "getPrice()": "98d5fdca",
          "getSubscribers()": "05cc61ad",
          "i_owner()": "dba6335f",
          "performUpkeep(bytes)": "4585e33b",
          "priceFeed()": "741bef1a"
        }
      },
      "storageLayout": {
        "storage": [
          {
            "astId": 917,
            "contract": "contracts/Code.sol:Code",
            "label": "s_Wallets",
            "offset": 0,
            "slot": "0",
            "type": "t_array(t_address_payable)dyn_storage"
          },
          {
            "astId": 922,
            "contract": "contracts/Code.sol:Code",
            "label": "s_Registre",
            "offset": 0,
            "slot": "1",
            "type": "t_mapping(t_address,t_struct(Dades)914_storage)"
          },
          {
            "astId": 926,
            "contract": "contracts/Code.sol:Code",
            "label": "s_SubPrice",
            "offset": 0,
            "slot": "2",
            "type": "t_uint256"
          },
          {
            "astId": 928,
            "contract": "contracts/Code.sol:Code",
            "label": "s_Interval",
            "offset": 0,
            "slot": "3",
            "type": "t_uint256"
          },
          {
            "astId": 930,
            "contract": "contracts/Code.sol:Code",
            "label": "EthPrice",
            "offset": 0,
            "slot": "4",
            "type": "t_uint256"
          },
          {
            "astId": 933,
            "contract": "contracts/Code.sol:Code",
            "label": "priceFeed",
            "offset": 0,
            "slot": "5",
            "type": "t_contract(AggregatorV3Interface)103"
          }
        ],
        "types": {
          "t_address": {
            "encoding": "inplace",
            "label": "address",
            "numberOfBytes": "20"
          },
          "t_address_payable": {
            "encoding": "inplace",
            "label": "address payable",
            "numberOfBytes": "20"
          },
          "t_array(t_address_payable)dyn_storage": {
            "base": "t_address_payable",
            "encoding": "dynamic_array",
            "label": "address payable[]",
            "numberOfBytes": "32"
          },
          "t_contract(AggregatorV3Interface)103": {
            "encoding": "inplace",
            "label": "contract AggregatorV3Interface",
            "numberOfBytes": "20"
          },
          "t_enum(access)908": {
            "encoding": "inplace",
            "label": "enum Code.access",
            "numberOfBytes": "1"
          },
          "t_mapping(t_address,t_struct(Dades)914_storage)": {
            "encoding": "mapping",
            "key": "t_address",
            "label": "mapping(address => struct Code.Dades)",
            "numberOfBytes": "32",
            "value": "t_struct(Dades)914_storage"
          },
          "t_struct(Dades)914_storage": {
            "encoding": "inplace",
            "label": "struct Code.Dades",
            "members": [
              {
                "astId": 910,
                "contract": "contracts/Code.sol:Code",
                "label": "timer",
                "offset": 0,
                "slot": "0",
                "type": "t_uint256"
              },
              {
                "astId": 913,
                "contract": "contracts/Code.sol:Code",
                "label": "s_access",
                "offset": 0,
                "slot": "1",
                "type": "t_enum(access)908"
              }
            ],
            "numberOfBytes": "64"
          },
          "t_uint256": {
            "encoding": "inplace",
            "label": "uint256",
            "numberOfBytes": "32"
          }
        }
      },
      "userdoc": {
        "kind": "user",
        "methods": {},
        "version": 1
      }
    }
  }
}