{
  "_format": "hh-sol-artifact-1",
  "contractName": "Code",
  "sourceName": "contracts/Code.sol",
  "abi": [
    {
      "inputs": [
        {
          "internalType": "uint256",
          "name": "startPrice",
          "type": "uint256"
        },
        {
          "internalType": "address",
          "name": "priceFeedAddress",
          "type": "address"
        }
      ],
      "stateMutability": "nonpayable",
      "type": "constructor"
    },
    {
      "inputs": [],
      "name": "Already_SUB",
      "type": "error"
    },
    {
      "inputs": [
        {
          "internalType": "uint256",
          "name": "currentBalance",
          "type": "uint256"
        },
        {
          "internalType": "uint256",
          "name": "PlayersNum",
          "type": "uint256"
        }
      ],
      "name": "Raffle__UpkeepNotNeeded",
      "type": "error"
    },
    {
      "inputs": [],
      "name": "Sub_NotQuantity",
      "type": "error"
    },
    {
      "anonymous": false,
      "inputs": [
        {
          "indexed": true,
          "internalType": "uint256",
          "name": "PricePlaced",
          "type": "uint256"
        }
      ],
      "name": "NewPrice",
      "type": "event"
    },
    {
      "anonymous": false,
      "inputs": [
        {
          "indexed": true,
          "internalType": "address",
          "name": "NewWallet",
          "type": "address"
        }
      ],
      "name": "subscription",
      "type": "event"
    },
    {
      "inputs": [],
      "name": "EthValue",
      "outputs": [
        {
          "internalType": "uint256",
          "name": "",
          "type": "uint256"
        }
      ],
      "stateMutability": "view",
      "type": "function"
    },
    {
      "inputs": [],
      "name": "PriceConversion",
      "outputs": [],
      "stateMutability": "nonpayable",
      "type": "function"
    },
    {
      "inputs": [],
      "name": "Subscription",
      "outputs": [],
      "stateMutability": "payable",
      "type": "function"
    },
    {
      "inputs": [],
      "name": "Withdraw",
      "outputs": [],
      "stateMutability": "nonpayable",
      "type": "function"
    },
    {
      "inputs": [
        {
          "internalType": "address",
          "name": "add",
          "type": "address"
        }
      ],
      "name": "callTimer",
      "outputs": [
        {
          "internalType": "uint256",
          "name": "",
          "type": "uint256"
        },
        {
          "internalType": "enum Code.access",
          "name": "",
          "type": "uint8"
        }
      ],
      "stateMutability": "view",
      "type": "function"
    },
    {
      "inputs": [
        {
          "internalType": "uint256",
          "name": "newPrice",
          "type": "uint256"
        }
      ],
      "name": "changePrice",
      "outputs": [],
      "stateMutability": "nonpayable",
      "type": "function"
    },
    {
      "inputs": [
        {
          "internalType": "bytes",
          "name": "",
          "type": "bytes"
        }
      ],
      "name": "checkUpkeep",
      "outputs": [
        {
          "internalType": "bool",
          "name": "upkeepNeeded",
          "type": "bool"
        },
        {
          "internalType": "bytes",
          "name": "walletOut",
          "type": "bytes"
        }
      ],
      "stateMutability": "view",
      "type": "function"
    },
    {
      "inputs": [],
      "name": "getBalance",
      "outputs": [
        {
          "internalType": "uint256",
          "name": "",
          "type": "uint256"
        }
      ],
      "stateMutability": "view",
      "type": "function"
    },
    {
      "inputs": [],
      "name": "getInterval",
      "outputs": [
        {
          "internalType": "uint256",
          "name": "",
          "type": "uint256"
        }
      ],
      "stateMutability": "view",
      "type": "function"
    },
    {
      "inputs": [],
      "name": "getMembers",
      "outputs": [
        {
          "internalType": "address[]",
          "name": "",
          "type": "address[]"
        }
      ],
      "stateMutability": "view",
      "type": "function"
    },
    {
      "inputs": [],
      "name": "getOwner",
      "outputs": [
        {
          "internalType": "address",
          "name": "",
          "type": "address"
        }
      ],
      "stateMutability": "view",
      "type": "function"
    },
    {
      "inputs": [],
      "name": "getPrice",
      "outputs": [
        {
          "internalType": "uint256",
          "name": "",
          "type": "uint256"
        },
        {
          "internalType": "uint256",
          "name": "",
          "type": "uint256"
        }
      ],
      "stateMutability": "view",
      "type": "function"
    },
    {
      "inputs": [],
      "name": "getPriceFeed",
      "outputs": [
        {
          "internalType": "contract AggregatorV3Interface",
          "name": "",
          "type": "address"
        }
      ],
      "stateMutability": "view",
      "type": "function"
    },
    {
      "inputs": [],
      "name": "getSubscribers",
      "outputs": [
        {
          "internalType": "uint256",
          "name": "",
          "type": "uint256"
        }
      ],
      "stateMutability": "view",
      "type": "function"
    },
    {
      "inputs": [],
      "name": "i_owner",
      "outputs": [
        {
          "internalType": "address",
          "name": "",
          "type": "address"
        }
      ],
      "stateMutability": "view",
      "type": "function"
    },
    {
      "inputs": [
        {
          "internalType": "bytes",
          "name": "walletOut",
          "type": "bytes"
        }
      ],
      "name": "performUpkeep",
      "outputs": [],
      "stateMutability": "nonpayable",
      "type": "function"
    },
    {
      "inputs": [],
      "name": "priceFeed",
      "outputs": [
        {
          "internalType": "contract AggregatorV3Interface",
          "name": "",
          "type": "address"
        }
      ],
      "stateMutability": "view",
      "type": "function"
    }
  ],
  "bytecode": "0x60a06040523480156200001157600080fd5b5060405162001e2338038062001e2383398181016040528101906200003791906200016a565b3373ffffffffffffffffffffffffffffffffffffffff1660808173ffffffffffffffffffffffffffffffffffffffff1660601b81525050816003819055506032600481905550806000806101000a81548173ffffffffffffffffffffffffffffffffffffffff021916908373ffffffffffffffffffffffffffffffffffffffff1602179055505050620001b1565b600080fd5b6000819050919050565b620000df81620000ca565b8114620000eb57600080fd5b50565b600081519050620000ff81620000d4565b92915050565b600073ffffffffffffffffffffffffffffffffffffffff82169050919050565b6000620001328262000105565b9050919050565b620001448162000125565b81146200015057600080fd5b50565b600081519050620001648162000139565b92915050565b60008060408385031215620001845762000183620000c5565b5b60006200019485828601620000ee565b9250506020620001a78582860162000153565b9150509250929050565b60805160601c611c29620001fa600039600081816103c901528181610668015281816106c201528181610c5301528181610dfc01528181610e8e0152610f8d0152611c296000f3fe6080604052600436106100fe5760003560e01c8063893d20e8116100955780639e87a5cd116100645780639e87a5cd146102d05780639eab5253146102fb578063a2b40d1914610326578063bc19f7c51461034f578063dba6335f1461038d576100fe565b8063893d20e814610237578063904a312c1461026257806391ad27b41461027957806398d5fdca146102a4576100fe565b806357ea89b6116100d157806357ea89b6146101ad5780636e04ff0d146101c4578063741bef1a14610202578063856365d11461022d576100fe565b806305cc61ad1461010357806312065fe01461012e57806326a361d4146101595780634585e33b14610184575b600080fd5b34801561010f57600080fd5b506101186103b8565b6040516101259190611091565b60405180910390f35b34801561013a57600080fd5b506101436103c5565b6040516101509190611091565b60405180910390f35b34801561016557600080fd5b5061016e610425565b60405161017b9190611091565b60405180910390f35b34801561019057600080fd5b506101ab60048036038101906101a69190611125565b61042f565b005b3480156101b957600080fd5b506101c2610666565b005b3480156101d057600080fd5b506101eb60048036038101906101e691906112b3565b610757565b6040516101f992919061139f565b60405180910390f35b34801561020e57600080fd5b506102176109d8565b604051610224919061144e565b60405180910390f35b6102356109fc565b005b34801561024357600080fd5b5061024c610c4f565b604051610259919061148a565b60405180910390f35b34801561026e57600080fd5b50610277610c77565b005b34801561028557600080fd5b5061028e610cab565b60405161029b9190611091565b60405180910390f35b3480156102b057600080fd5b506102b9610cb5565b6040516102c79291906114a5565b60405180910390f35b3480156102dc57600080fd5b506102e5610cc6565b6040516102f2919061144e565b60405180910390f35b34801561030757600080fd5b50610310610cef565b60405161031d919061158c565b60405180910390f35b34801561033257600080fd5b5061034d600480360381019061034891906115da565b610dfa565b005b34801561035b57600080fd5b5061037660048036038101906103719190611633565b610e89565b6040516103849291906116d7565b60405180910390f35b34801561039957600080fd5b506103a2610f8b565b6040516103af919061148a565b60405180910390f35b6000600180549050905090565b60007f000000000000000000000000000000000000000000000000000000000000000073ffffffffffffffffffffffffffffffffffffffff163373ffffffffffffffffffffffffffffffffffffffff161461041f57600080fd5b47905090565b6000600554905090565b600061044960405180602001604052806000815250610757565b5090508061049557476001805490506040517f75c3d3dc00000000000000000000000000000000000000000000000000000000815260040161048c9291906114a5565b60405180910390fd5b600080600090505b84849050811015610528576001816104b5919061172f565b858590506104c39190611785565b60086104cf91906117b9565b60026104db9190611946565b8585838181106104ee576104ed611991565b5b9050013560f81c60f81b60f81c60ff1661050891906117b9565b82610513919061172f565b91508080610520906119c0565b91505061049d565b50683635c9adc5de9fffff600260006001848154811061054b5761054a611991565b5b9060005260206000200160009054906101000a900473ffffffffffffffffffffffffffffffffffffffff1673ffffffffffffffffffffffffffffffffffffffff1673ffffffffffffffffffffffffffffffffffffffff16815260200190815260200160002060000181905550600060026000600184815481106105d1576105d0611991565b5b9060005260206000200160009054906101000a900473ffffffffffffffffffffffffffffffffffffffff1673ffffffffffffffffffffffffffffffffffffffff1673ffffffffffffffffffffffffffffffffffffffff16815260200190815260200160002060010160006101000a81548160ff0219169083600181111561065b5761065a611660565b5b021790555050505050565b7f000000000000000000000000000000000000000000000000000000000000000073ffffffffffffffffffffffffffffffffffffffff163373ffffffffffffffffffffffffffffffffffffffff16146106be57600080fd5b60007f000000000000000000000000000000000000000000000000000000000000000073ffffffffffffffffffffffffffffffffffffffff164760405161070490611a3a565b60006040518083038185875af1925050503d8060008114610741576040519150601f19603f3d011682016040523d82523d6000602084013e610746565b606091505b505090508061075457600080fd5b50565b60006060600080600180549050119050600060018054905067ffffffffffffffff81111561078857610787611188565b5b6040519080825280602002602001820160405280156107b65781602001602082028036833780820191505090505b50905060005b6001805490508110156109d057600181815481106107dd576107dc611991565b5b9060005260206000200160009054906101000a900473ffffffffffffffffffffffffffffffffffffffff1682828151811061081b5761081a611991565b5b602002602001019073ffffffffffffffffffffffffffffffffffffffff16908173ffffffffffffffffffffffffffffffffffffffff168152505060006002600084848151811061086e5761086d611991565b5b602002602001015173ffffffffffffffffffffffffffffffffffffffff1673ffffffffffffffffffffffffffffffffffffffff168152602001908152602001600020604051806040016040529081600082015481526020016001820160009054906101000a900460ff1660018111156108ea576108e9611660565b5b60018111156108fc576108fb611660565b5b8152505090506000816000015190506000600454824261091c9190611785565b119050808015610953575060018081111561093a57610939611660565b5b8360200151600181111561095157610950611660565b5b145b1561097b57836040516020016109699190611a70565b60405160208183030381529060405296505b8080156109855750855b80156109b8575060018081111561099f5761099e611660565b5b836020015160018111156109b6576109b5611660565b5b145b975050505080806109c8906119c0565b9150506107bc565b505050915091565b60008054906101000a900473ffffffffffffffffffffffffffffffffffffffff1681565b6000600260003373ffffffffffffffffffffffffffffffffffffffff1673ffffffffffffffffffffffffffffffffffffffff168152602001908152602001600020604051806040016040529081600082015481526020016001820160009054906101000a900460ff166001811115610a7757610a76611660565b5b6001811115610a8957610a88611660565b5b815250509050600180811115610aa257610aa1611660565b5b81602001516001811115610ab957610ab8611660565b5b1415610af1576040517fb7bb0ae300000000000000000000000000000000000000000000000000000000815260040160405180910390fd5b6003543414610b2c576040517f78ff246500000000000000000000000000000000000000000000000000000000815260040160405180910390fd5b6001339080600181540180825580915050600190039060005260206000200160009091909190916101000a81548173ffffffffffffffffffffffffffffffffffffffff021916908373ffffffffffffffffffffffffffffffffffffffff1602179055506000600260003373ffffffffffffffffffffffffffffffffffffffff1673ffffffffffffffffffffffffffffffffffffffff168152602001908152602001600020905042816000018190555060018160010160006101000a81548160ff02191690836001811115610c0357610c02611660565b5b02179055503373ffffffffffffffffffffffffffffffffffffffff167f4ef47cf133508560592f2074ed2492d2004c869434c35df45fa03ae58b0fa5c260405160405180910390a25050565b60007f0000000000000000000000000000000000000000000000000000000000000000905090565b610ca360035460008054906101000a900473ffffffffffffffffffffffffffffffffffffffff16610faf565b600581905550565b6000600454905090565b600080600354600554915091509091565b60008060009054906101000a900473ffffffffffffffffffffffffffffffffffffffff16905090565b6060600060018054905067ffffffffffffffff811115610d1257610d11611188565b5b604051908082528060200260200182016040528015610d405781602001602082028036833780820191505090505b50905060005b600180549050811015610df25760018181548110610d6757610d66611991565b5b9060005260206000200160009054906101000a900473ffffffffffffffffffffffffffffffffffffffff16828281518110610da557610da4611991565b5b602002602001019073ffffffffffffffffffffffffffffffffffffffff16908173ffffffffffffffffffffffffffffffffffffffff16815250508080610dea906119c0565b915050610d46565b508091505090565b7f000000000000000000000000000000000000000000000000000000000000000073ffffffffffffffffffffffffffffffffffffffff163373ffffffffffffffffffffffffffffffffffffffff1614610e5257600080fd5b80600381905550807f270b316b51ab2cf3a3bb8ca4d22e76a327d05e762fcaa8bd6afaf8cfde9270b760405160405180910390a250565b6000807f000000000000000000000000000000000000000000000000000000000000000073ffffffffffffffffffffffffffffffffffffffff163373ffffffffffffffffffffffffffffffffffffffff1614610ee457600080fd5b6000600260008573ffffffffffffffffffffffffffffffffffffffff1673ffffffffffffffffffffffffffffffffffffffff168152602001908152602001600020604051806040016040529081600082015481526020016001820160009054906101000a900460ff166001811115610f5f57610f5e611660565b5b6001811115610f7157610f70611660565b5b815250509050806000015181602001519250925050915091565b7f000000000000000000000000000000000000000000000000000000000000000081565b600080610fbb83610fe8565b905060008164174876e80086610fd191906117b9565b610fdb9190611aba565b9050809250505092915050565b6000808273ffffffffffffffffffffffffffffffffffffffff1663feaf968c6040518163ffffffff1660e01b815260040160a06040518083038186803b15801561103157600080fd5b505afa158015611045573d6000803e3d6000fd5b505050506040513d601f19601f820116820180604052508101906110699190611b78565b50505091505080915050919050565b6000819050919050565b61108b81611078565b82525050565b60006020820190506110a66000830184611082565b92915050565b6000604051905090565b600080fd5b600080fd5b600080fd5b600080fd5b600080fd5b60008083601f8401126110e5576110e46110c0565b5b8235905067ffffffffffffffff811115611102576111016110c5565b5b60208301915083600182028301111561111e5761111d6110ca565b5b9250929050565b6000806020838503121561113c5761113b6110b6565b5b600083013567ffffffffffffffff81111561115a576111596110bb565b5b611166858286016110cf565b92509250509250929050565b600080fd5b6000601f19601f8301169050919050565b7f4e487b7100000000000000000000000000000000000000000000000000000000600052604160045260246000fd5b6111c082611177565b810181811067ffffffffffffffff821117156111df576111de611188565b5b80604052505050565b60006111f26110ac565b90506111fe82826111b7565b919050565b600067ffffffffffffffff82111561121e5761121d611188565b5b61122782611177565b9050602081019050919050565b82818337600083830152505050565b600061125661125184611203565b6111e8565b90508281526020810184848401111561127257611271611172565b5b61127d848285611234565b509392505050565b600082601f83011261129a576112996110c0565b5b81356112aa848260208601611243565b91505092915050565b6000602082840312156112c9576112c86110b6565b5b600082013567ffffffffffffffff8111156112e7576112e66110bb565b5b6112f384828501611285565b91505092915050565b60008115159050919050565b611311816112fc565b82525050565b600081519050919050565b600082825260208201905092915050565b60005b83811015611351578082015181840152602081019050611336565b83811115611360576000848401525b50505050565b600061137182611317565b61137b8185611322565b935061138b818560208601611333565b61139481611177565b840191505092915050565b60006040820190506113b46000830185611308565b81810360208301526113c68184611366565b90509392505050565b600073ffffffffffffffffffffffffffffffffffffffff82169050919050565b6000819050919050565b600061141461140f61140a846113cf565b6113ef565b6113cf565b9050919050565b6000611426826113f9565b9050919050565b60006114388261141b565b9050919050565b6114488161142d565b82525050565b6000602082019050611463600083018461143f565b92915050565b6000611474826113cf565b9050919050565b61148481611469565b82525050565b600060208201905061149f600083018461147b565b92915050565b60006040820190506114ba6000830185611082565b6114c76020830184611082565b9392505050565b600081519050919050565b600082825260208201905092915050565b6000819050602082019050919050565b61150381611469565b82525050565b600061151583836114fa565b60208301905092915050565b6000602082019050919050565b6000611539826114ce565b61154381856114d9565b935061154e836114ea565b8060005b8381101561157f5781516115668882611509565b975061157183611521565b925050600181019050611552565b5085935050505092915050565b600060208201905081810360008301526115a6818461152e565b905092915050565b6115b781611078565b81146115c257600080fd5b50565b6000813590506115d4816115ae565b92915050565b6000602082840312156115f0576115ef6110b6565b5b60006115fe848285016115c5565b91505092915050565b61161081611469565b811461161b57600080fd5b50565b60008135905061162d81611607565b92915050565b600060208284031215611649576116486110b6565b5b60006116578482850161161e565b91505092915050565b7f4e487b7100000000000000000000000000000000000000000000000000000000600052602160045260246000fd5b600281106116a05761169f611660565b5b50565b60008190506116b18261168f565b919050565b60006116c1826116a3565b9050919050565b6116d1816116b6565b82525050565b60006040820190506116ec6000830185611082565b6116f960208301846116c8565b9392505050565b7f4e487b7100000000000000000000000000000000000000000000000000000000600052601160045260246000fd5b600061173a82611078565b915061174583611078565b9250827fffffffffffffffffffffffffffffffffffffffffffffffffffffffffffffffff0382111561177a57611779611700565b5b828201905092915050565b600061179082611078565b915061179b83611078565b9250828210156117ae576117ad611700565b5b828203905092915050565b60006117c482611078565b91506117cf83611078565b9250817fffffffffffffffffffffffffffffffffffffffffffffffffffffffffffffffff048311821515161561180857611807611700565b5b828202905092915050565b60008160011c9050919050565b6000808291508390505b600185111561186a5780860481111561184657611845611700565b5b60018516156118555780820291505b808102905061186385611813565b945061182a565b94509492505050565b600082611883576001905061193f565b81611891576000905061193f565b81600181146118a757600281146118b1576118e0565b600191505061193f565b60ff8411156118c3576118c2611700565b5b8360020a9150848211156118da576118d9611700565b5b5061193f565b5060208310610133831016604e8410600b84101617156119155782820a9050838111156119105761190f611700565b5b61193f565b6119228484846001611820565b9250905081840481111561193957611938611700565b5b81810290505b9392505050565b600061195182611078565b915061195c83611078565b92506119897fffffffffffffffffffffffffffffffffffffffffffffffffffffffffffffffff8484611873565b905092915050565b7f4e487b7100000000000000000000000000000000000000000000000000000000600052603260045260246000fd5b60006119cb82611078565b91507fffffffffffffffffffffffffffffffffffffffffffffffffffffffffffffffff8214156119fe576119fd611700565b5b600182019050919050565b600081905092915050565b50565b6000611a24600083611a09565b9150611a2f82611a14565b600082019050919050565b6000611a4582611a17565b9150819050919050565b6000819050919050565b611a6a611a6582611078565b611a4f565b82525050565b6000611a7c8284611a59565b60208201915081905092915050565b7f4e487b7100000000000000000000000000000000000000000000000000000000600052601260045260246000fd5b6000611ac582611078565b9150611ad083611078565b925082611ae057611adf611a8b565b5b828204905092915050565b600069ffffffffffffffffffff82169050919050565b611b0a81611aeb565b8114611b1557600080fd5b50565b600081519050611b2781611b01565b92915050565b6000819050919050565b611b4081611b2d565b8114611b4b57600080fd5b50565b600081519050611b5d81611b37565b92915050565b600081519050611b72816115ae565b92915050565b600080600080600060a08688031215611b9457611b936110b6565b5b6000611ba288828901611b18565b9550506020611bb388828901611b4e565b9450506040611bc488828901611b63565b9350506060611bd588828901611b63565b9250506080611be688828901611b18565b915050929550929590935056fea264697066735822122097d7f46cb968f66815c149e53c0ac3032ea8f1003d21594c12a6a82b110b63bb64736f6c63430008080033",
  "linkReferences": {},
  "deployedLinkReferences": {}
}